:020000040800F2
:100000000010002009180008011700080717000851
:1000100000000000000000000000000000000000E0
:100020000000000000000000000000000D170008A4
:10003000000000000000000017170008211700084A
:1000400059180008591800085918000859180008CC
:1000500059180008591800085918000859180008BC
:100060000000000059180008591800085918000825
:1000700059180008591800085918000831170008C5
:10008000591800080000000000000000591800087E
:1000900000000000591800085918000859180008F5
:1000A000000000005918000800000000591800085E
:1000B0000000000000000000000000000000000040
:1000C00010B5064C2378002B07D1054B002B02D02E
:1000D000044800E000BF0123237010BD3C00002055
:1000E00000000000A43A0008044B10B5002B03D018
:1000F0000349044800E000BF10BDC04600000000F6
:1001000040000020A43A0008002243088B4274D328
:1001100003098B425FD3030A8B4244D3030B8B4208
:1001200028D3030C8B420DD3FF22090212BA030C11
:100130008B4202D31212090265D0030B8B4219D3F2
:1001400000E0090AC30B8B4201D3CB03C01A524112
:10015000830B8B4201D38B03C01A5241430B8B425A
:1001600001D34B03C01A5241030B8B4201D30B0343
:10017000C01A5241C30A8B4201D3CB02C01A52416A
:10018000830A8B4201D38B02C01A5241430A8B422D
:1001900001D34B02C01A5241030A8B4201D30B0216
:1001A000C01A5241CDD2C3098B4201D3CB01C01A30
:1001B000524183098B4201D38B01C01A524143093A
:1001C0008B4201D34B01C01A524103098B4201D328
:1001D0000B01C01A5241C3088B4201D3CB00C01A95
:1001E000524183088B4201D38B00C01A524143080D
:1001F0008B4201D34B00C01A5241411A00D2014632
:10020000524110467047FFE701B5002000F0F0F8BA
:1002100002BDC0460029F7D076E7704703460B437E
:100220007FD4002243088B4274D303098B425FD3EF
:10023000030A8B4244D3030B8B4228D3030C8B421B
:100240000DD3FF22090212BA030C8B4202D3121201
:10025000090265D0030B8B4219D300E0090AC30BD6
:100260008B4201D3CB03C01A5241830B8B4201D383
:100270008B03C01A5241430B8B4201D34B03C01A6C
:100280005241030B8B4201D30B03C01A5241C30AE4
:100290008B4201D3CB02C01A5241830A8B4201D355
:1002A0008B02C01A5241430A8B4201D34B02C01A3F
:1002B0005241030A8B4201D30B02C01A5241CDD2E4
:1002C000C3098B4201D3CB01C01A524183098B422F
:1002D00001D38B01C01A524143098B4201D34B0118
:1002E000C01A524103098B4201D30B01C01A52417B
:1002F000C3088B4201D3CB00C01A524183088B4202
:1003000001D38B00C01A524143088B4201D34B00EA
:10031000C01A5241411A00D201465241104670475C
:100320005DE0CA0F00D04942031000D34042534061
:1003300000229C4603098B422DD3030A8B4212D321
:10034000FC22890112BA030A8B420CD38901921153
:100350008B4208D3890192118B4204D389013AD090
:10036000921100E08909C3098B4201D3CB01C01A65
:10037000524183098B4201D38B01C01A5241430978
:100380008B4201D34B01C01A524103098B4201D366
:100390000B01C01A5241C3088B4201D3CB00C01AD3
:1003A000524183088B4201D38B00C01A5241D9D2EB
:1003B00043088B4201D34B00C01A5241411A00D26C
:1003C0000146634652415B10104601D34042002B68
:1003D00000D54942704763465B1000D3404201B5E7
:1003E000002000F005F802BD0029F8D016E770479C
:1003F0007047C04680B500AF204BDB68012B10D1A1
:100400009023DB058021180001F0F6FC031E08D1C3
:100410001B4B01221A6096235B001900032001F098
:1004200099F9164BDB68012B10D19023DB050821CD
:10043000180001F0E1FC031E08D1114B01225A60A3
:1004400096235B001900032001F084F90B4BDB6855
:10045000012B10D19023DB050221180001F0CCFC08
:10046000031E08D196235B001900032001F072F9E6
:10047000034B01229A60C046BD4680BD200000208B
:100480005800002080B582B000AF7860084B7A68D1
:100490009200D358012B06D1054B7A6892000021B7
:1004A000D150012300E000231800BD4602B080BDFA
:1004B0005800002080B500AFE34B1B68042B00D927
:1004C000BEE19A00E14BD3181B689F4600F084FE02
:1004D000DD4B01221A60DE4B1A68DE4B1B68D31815
:1004E000FA2291001800FFF799FE03001A00DA4B78
:1004F0001A60D74B1B68FA2291001800FFF78EFE96
:1005000003001A00D54B1A60D14B1B68190000205C
:1005100001F020F9FA239B001900012001F01AF9DB
:100520001421022001F016F90021012000F067FCDF
:10053000CB4B180000F043FC0021002000F05FFCD2
:10054000C84B180000F03BFC2CE19023DB05012296
:100550001021180001F06DFC9023DB05012204211D
:10056000180001F066FC802359019023DB0500226E
:10057000180001F05EFCBC4B00221021180001F0B5
:1005800058FCBA4B1B68012B1ED1AF4B02221A60DC
:10059000B04B1B681900002001F0DCF8AD4B1B6864
:1005A000FA2291001800FFF739FE03001A00AA4B47
:1005B0001A60A84B1B68FA2291001800FFF72EFE64
:1005C00003001A00A54B1A600120FFF75BFF030030
:1005D000012B00D0DFE09C4B05221A6000F038FCB4
:1005E00000F002FC0021012000F009FCA04B1800E3
:1005F00000F0E5FB0021002000F001FC9D4B1800FD
:1006000000F0DDFB1DE1984B01221021180001F0E4
:1006100010FC954B00222021180001F00AFC934B9E
:100620001B68012B00D0B8E0874B03221A60884B6F
:100630001B68FA2291001800FFF7F0FD03001A0072
:10064000854B1A60824B1A68824B1B68D318FA22BA
:1006500091001800FFF7E2FD03001A007F4B1A60BB
:100660007B4B1B681900002001F074F895E0802393
:1006700059019023DB050122180001F0DAFB7A4BC7
:1006800001222021180001F0D4FB8023590090237F
:10069000DB050022180001F0CCFB9023DB050022D3
:1006A0000421180001F0C5FB704B1B68012B1ED103
:1006B000654B04221A60674B1B68FA2291001800F0
:1006C000FFF7ACFD03001A00634B1A60614B1B6817
:1006D000FA2291001800FFF7A1FD03001A005F4BFA
:1006E0001A605C4B1B681900002001F033F80120F0
:1006F000FFF7C8FE0300012B51D1534B06221A60AD
:1007000000F0A6FB00F070FB0021012000F077FB59
:10071000574B180000F053FB0021002000F06FFB46
:10072000544B180000F04BFB8BE09023DB050022BC
:100730001021180001F07DFB802359009023DB0578
:100740000122180001F075FB484B1B68012B28D1D2
:100750003D4B01221A603E4B1A683E4B1B68D31872
:10076000FA2291001800FFF759FD03001A003A4BD6
:100770001A60374B1B68FA2291001800FFF74EFDF4
:1007800003001A00354B1A60314B1B68190000201A
:1007900000F0E0FF05E0C04604E0C04602E0C046CD
:1007A00000E0C0462C4B1A682C4B1B681900100047
:1007B00000F0E2FC2D4B9B68012B05D11421022097
:1007C00000F0C8FF00F068FB284B5B68012B0FD1DD
:1007D000FA239B001900012000F0BCFF1E4B1B6890
:1007E0005A1E1D4B1A601D4B1B685A1E1B4B1A606C
:1007F0000220FFF747FE0300012B22D1154B0022F8
:100800001A60134B00221A6000F0E6FC0E4B08221F
:100810001A606421002000F09DFF00F0E5FA00213D
:10082000012000F0ECFA144B180000F0C8FA002187
:10083000002000F0E4FA114B180000F0C0FA00E0CC
:10084000C046BD4680BDC04668000020403B000851
:1008500014000020180000206C0000207000002010
:10086000BC3A0008C83A00080004004820000020F4
:10087000DC3A0008EC3A0008FC3A00080C3B00089F
:1008800080B500AF6E4B1B68052B02D0062B5ED0E7
:10089000D4E0802359019023DB050022180001F0E9
:1008A000C8FA684B00221021180001F0C2FA902308
:1008B000DB0501220421180001F0BBFA8023590056
:1008C0009023DB050122180001F0B3FA0120FFF7A5
:1008D000D9FD0300012B02D1594B06221A600020DA
:1008E000FFF7D0FD0300012B00D08DE0544B012217
:1008F0001A60554B1A68554B1B68D318FA229100A1
:100900001800FFF78BFC03001A00514B1A604E4B86
:100910001B68FA2291001800FFF780FC03001A0000
:100920004C4B1A60484B1B681900002000F012FF66
:1009300000F05AFA484B180000F041FA002100205C
:1009400000F05DFA454B180000F039FA76E090238C
:10095000DB0500220421180001F06BFA8023590006
:100960009023DB050022180001F063FA802359016F
:100970009023DB050122180001F05BFA314B0122C4
:100980001021180001F055FA0120FFF77BFD03004C
:10099000012B02D12A4B05221A600020FFF772FDBD
:1009A0000300012B32D1264B03221A60264B1B6811
:1009B000FA2291001800FFF731FC03001A00244BC3
:1009C0001A60214B1A68214B1B68D318FA22910038
:1009D0001800FFF723FC03001A001E4B1A601A4B85
:1009E0001B681900002000F0B5FE00F0FDF91A4B5D
:1009F000180000F0E4F90021002000F000FA174B85
:100A0000180000F0DCF919E0C04600E0C046022002
:100A1000FFF738FD0300012B10D16421002000F006
:100A200099FE00F0D9FB064B08221A60064B002203
:100A30001A60064B00221A6000F0D6F9BD4680BD50
:100A40006800002000040048140000201800002066
:100A50006C00002070000020203B00082C3B0008A8
:100A6000B0B500AF774B1B68072B62D0082B00D0C6
:100A7000E4E0754B1B68012B10D16421002000F0CD
:100A800069FE80235A009023DB051100180001F055
:100A9000EDF96E4B1021180001F0E8F90020FFF786
:100AA000F1FC0300012B11D1694B1A68694B9200CC
:100AB000D258694B1B68D218674B1A60664B1B688B
:100AC000664A934202DD644B00221A600220FFF75F
:100AD000D9FC0300012B13D15A4B07221A60802343
:100AE00059009023DB050122180001F0A2F9574BB1
:100AF00001221021180001F09CF9554B00221A60C8
:100B0000554B1B68FA2291001800FFF787FB030082
:100B10001C004F4B1A684F4B9200D358FA22910099
:100B20001800FFF77BFB03001900200000F024FBF6
:100B300067E0454B1B68012B0ED16421002000F0BB
:100B400009FE9023DB051021180001F08FF93F4BBF
:100B50002021180001F08AF90020FFF793FC030020
:100B6000012B09D13A4B1A683A4B9200D2583C4BB0
:100B70001B68D2183A4B1A600220FFF783FC03006F
:100B8000012B25D1364B1A68334B1B68D318354AD5
:100B9000934217DD304B1B68002B13D19023DB05EC
:100BA00001221021180001F044F9284B01222021D4
:100BB000180001F03EF9234B08221A60244B002252
:100BC0001A6005E01F4B00221A6000F00DF936E0B4
:100BD000234B1B68FA2291001800FFF71FFB03004C
:100BE0001C001B4B1A681B4B9200D358FA22910031
:100BF0001800FFF713FB03001900200000F0BCFAF7
:100C0000C0460120FFF73EFC0300012B0BD1104B27
:100C10001B685A1C0E4B1A600D4B1B68042B02DD1F
:100C20000B4B00221A60084B9B68012B07D1142143
:100C3000022000F08FFD00F02FF900E0C046BD4615
:100C4000B0BDC0466800002020000020000400481D
:100C5000640000200000002014000020D07E01006D
:100C6000180000209F86010090B587B002AF0200F7
:100C7000FB1D1A700F203B18FA1D12780F218A43B2
:100C80001A70FB1D1B781A010E243B191A703B18B1
:100C90001B780C221343DAB208217B181A703B1818
:100CA0001B7808221343DAB27B185A703B191B7861
:100CB0000C221343DAB27B189A703B191B78082276
:100CC0001343DAB27B18DA707A180548642300936C
:100CD00004234E2101F08CF9C046BD4605B090BDFD
:100CE0009C00002090B587B002AF0200FB1D1A7077
:100CF0000F203B18FA1D12780F218A431A70FB1D32
:100D00001B781A010E243B191A703B181B780D2210
:100D10001343DAB208217B181A703B181B7809229A
:100D20001343DAB27B185A703B191B780D22134318
:100D3000DAB27B189A703B191B7809221343DAB296
:100D40007B18DA707A1805486423009304234E2137
:100D500001F04EF9C046BD4605B090BD9C00002094
:100D600080B500AF3320FFF77FFF3220FFF77CFF15
:100D7000322000F0D7FD2820FFF776FF322000F068
:100D8000D1FD0120FFF770FF322000F0CBFD0620DF
:100D9000FFF76AFF322000F0C5FD0C20FFF764FF6B
:100DA000322000F0BFFD0220FFF75EFF322000F08E
:100DB000B9FD8020FFF758FFC046BD4680BD80B515
:100DC00082B000AF786006E07B685A1C7A601B78BE
:100DD0001800FFF787FF7B681B78002BF4D1C04613
:100DE000C046BD4602B080BD80B500AF0120FFF710
:100DF0003BFF052000F096FDC046BD4680BD80B596
:100E000084B000AF786039607B68012B0AD17B68C1
:100E1000DAB23B68DBB2D318DAB20F23FB187F32A9
:100E20001A700BE03B68DBB24033DBB25BB280226E
:100E3000524213435AB20F23FB181A700F23FB18A8
:100E40001B781800FFF710FFC046BD4604B080BDF8
:100E500080B500AF9023DB0500220121180000F0CF
:100E6000E8FF0B4B00220221180000F0E2FF094BC3
:100E700000220821180000F0DCFF802319019023D4
:100E8000DB050022180000F0D4FFC046BD4680BD3F
:100E9000001400480004004880B500AFFFF7D8FFF9
:100EA000274B1B68032B2DD03ADC022B1ED037DCDE
:100EB000002B02D0012B0DD032E09023DB05012264
:100EC0000121180000F0B5FF1E4B1B68180000F050
:100ED0003FF826E01C4B01220221180000F0A9FF78
:100EE000184B5B68180000F033F81AE0174B01222A
:100EF0000821180000F09DFF124B9B68180000F0BD
:100F000027F80EE0802319019023DB050122180049
:100F100000F08FFF0B4BDB68180000F019F800E0C1
:100F2000C046074B1B685A1C054B1A60044B1B68D4
:100F3000032B02DD024B00221A60C046BD4680BD75
:100F400084000020740000200014004800040048C1
:100F500080B582B000AF78607B68092B00D9FFE0D4
:100F60007B689A00814BD3181B689F46804B0022F8
:100F70000121180000F05DFF7E4B00228021180047
:100F800000F057FF7B4B00224021180000F051FF7A
:100F9000784B00220221180000F04BFFE1E0744B77
:100FA00001220121180000F044FF724B0022802131
:100FB000180000F03EFF6F4B00224021180000F0A7
:100FC00038FF6C4B00220221180000F032FFC8E00D
:100FD000674B00220121180000F02BFF654B012216
:100FE0008021180000F025FF624B002240211800EC
:100FF00000F01FFF5F4B00220221180000F019FFD4
:10100000AFE05B4B01220121180000F012FF594BA9
:1010100001228021180000F00CFF564B00224021D5
:10102000180000F006FF534B00220221180000F0C8
:1010300000FF96E04E4B00220121180000F0F9FE5F
:101040004C4B00228021180000F0F3FE494B012296
:101050004021180000F0EDFE464B0022022118004E
:1010600000F0E7FE7DE0424B01220121180000F074
:10107000E0FE404B00228021180000F0DAFE3D4BDC
:1010800001224021180000F0D4FE3A4B0022022138
:10109000180000F0CEFE64E0354B0022012118005C
:1010A00000F0C7FE334B01228021180000F0C1FE82
:1010B000304B01224021180000F0BBFE2D4B0022D6
:1010C0000221180000F0B5FE4BE0294B012201215E
:1010D000180000F0AEFE274B01228021180000F01E
:1010E000A8FE244B01224021180000F0A2FE214B53
:1010F00000220221180000F09CFE32E01C4B00226E
:101100000121180000F095FE1A4B002280211800E2
:1011100000F08FFE174B00224021180000F089FEDE
:10112000144B01220221180000F083FE19E0104B3D
:1011300001220121180000F07CFE0E4B00228021CC
:10114000180000F076FE0B4B00224021180000F042
:1011500070FE084B01220221180000F06AFE00E038
:10116000C046C046BD4602B080BDC046543B0008E4
:10117000001400480004004880B582B000AF7860D9
:1011800039607B680A211800FFF748F803001A004D
:10119000104B1A607B680A211800FFF725F90B0035
:1011A0001A000C4B5A603B680A211800FFF736F80A
:1011B00003001A00074B9A603B680A211800FFF7EA
:1011C00013F90B001A00034BDA60C046BD4602B0AB
:1011D00080BDC0467400002080B500AF8023590157
:1011E0009023DB050122180000F023FE9023DB058D
:1011F00001221021180000F01CFE802359009023CA
:10120000DB050122180000F014FE9023DB0501220B
:101210000421180000F00DFE074B012220211800C8
:1012200000F007FE044B01221021180000F001FE1F
:10123000C046BD4680BDC0460004004880B500AF32
:1012400000F00CFB00F02EF800F018F900F0C2F8E6
:1012500000F080F8104B180002F044F8FFF780FD12
:10126000FA239B001900042000F074FAFFF722F91A
:10127000FFF706FBFFF7F4FB084B1B69012BF5D1C9
:10128000FA239B001900042000F064FA044B0121AA
:10129000180000F0EBFDE9E7F0000020200000203E
:1012A0000004004890B595B000AF20243B19180009
:1012B00030231A00002102F0EDFB1023FB18180068
:1012C00010231A00002102F0E5FB3B001800102358
:1012D0001A00002102F0DEFB21007B1802221A60B6
:1012E0007B180122DA607B1810221A617B18002219
:1012F0001A627B18180001F099FA031E01D000F061
:1013000063F910217B1807221A607B1800225A60AB
:101310007B1800229A607B180022DA607B1800217B
:10132000180001F09DFD031E01D000F04DF93B00B7
:1013300020221A603B000022DA603B00180001F016
:10134000B3FE031E01D000F03FF9C046BD4615B004
:1013500090BD000080B500AF1B4B1C4A1A601A4BB1
:101360001B4A5A60184B00229A60174B0122DA6020
:10137000154B00221A61144B00225A61124B0022B5
:101380009A61114B0022DA610F4B00221A620E4B58
:10139000180000F087FD031E01D000F015F90A4B7C
:1013A0000021180001F08CF9031E01D000F00CF9A7
:1013B000054B0021180001F0CFF9031E01D000F009
:1013C00003F9C046BD4680BD9C000020005400408B
:1013D0000E09002080B586B000AF0823FB18180066
:1013E00010231A00002102F055FB3B0018000823CF
:1013F0001A00002102F04EFB1E4B8022D2051A601B
:101400001C4B1D4A5A601B4B00229A60194B092243
:10141000DA60184B00221A61164B00229A61154BB4
:10142000180001F00FFF031E01D000F0CDF80821D5
:101430007B18802252011A607A180E4B1100180096
:1014400002F08AF8031E01D000F0BEF83B00002233
:101450001A603B0000225A603A00064B1100180047
:1014600002F08CFA031E01D000F0AEF8C046BD4673
:1014700006B080BDF00000203F1F000090B589B08D
:1014800000AF0C243B19180014231A00002102F0AD
:1014900001FB494B5A69484B8021C9030A435A61F1
:1014A000454B5A698023DB031340BB60BB68424B4A
:1014B0005A69414B802189020A435A613E4B5A695D
:1014C00080239B0213407B607B683B4B5A693A4BFD
:1014D0008021C9020A435A61374B5A698023DB02D3
:1014E00013403B603B68354B00220321180000F09D
:1014F000A0FC33499023DB050022180000F099FC82
:10150000304B0022FB21180000F093FC3B19032212
:101510001A603B1901225A603B1900229A603B195C
:101520000022DA603B19254A1900100000F0FCFA8D
:101530003B19234A1A603B1901225A603B190022C9
:101540009A603B190022DA603A199023DB051100FA
:10155000180000F0E9FA3B198A221A603B190022B0
:101560005A603B1901229A603A199023DB05110059
:10157000180000F0D9FA21007B18FB221A607B18B2
:1015800001225A607B1800229A607B180022DA60E0
:101590007B180C4A1900100000F0C6FA80235B0289
:1015A000180001F025F980239B02180001F020F9B2
:1015B000C046BD4609B090BD00100240001400486E
:1015C000151900000004004880B500AF72B6C0468F
:1015D000FEE7000080B582B000AF0F4B9A690E4B5A
:1015E00001210A439A610C4B9B69012213407B60E5
:1015F0007B68094BDA69084B802149050A43DA61A7
:10160000054BDA6980235B0513403B603B68C046AD
:10161000BD4602B080BDC0460010024090B58BB000
:1016200000AF786014243B19180014231A0000211D
:1016300002F030FA7B681B681D4A934233D11D4B80
:101640005A691C4B802189020A435A61194B5A6915
:1016500080239B0213403B613B693B19C022D200AF
:101660001A6021007B1812225A607B1800229A60AF
:101670007B180322DA607B1804221A617A189023FF
:10168000DB051100180000F04FFA0A4BDA69094B2C
:10169000802189030A43DA61064BDA6980239B03C0
:1016A0001340FB60FB68C046BD460BB090BDC04612
:1016B000005400400010024080B584B000AF786054
:1016C0007B681A688023DB059A4213D10B4BDA69D9
:1016D0000A4B01210A43DA61084BDB6901221340FE
:1016E000FB60FB68002200210F2000F0EBF90F20C7
:1016F00000F0FDF9C046BD4604B080BD00100240B8
:1017000080B500AFFEE780B500AFFEE780B500AF63
:10171000C046BD4680BD80B500AFC046BD4680BD59
:1017200080B500AF00F0E2F8C046BD4680BD0000C5
:1017300080B500AF034B180001F020FEC046BD4647
:1017400080BDC046F000002080B500AFC046BD4659
:1017500080BD000080B582B000AF786039603B6822
:101760000A211800FEF75AFD03001900064B7A689B
:101770009200D150054B7A6892000021D150C046AA
:10178000BD4602B080BDC046880000202000002079
:1017900080B582B000AF00237B601CE0124B7A68FA
:1017A0009200D358002B13DD0F4B7A689200D35868
:1017B000591E0D4B7A689200D1500B4B7A689200FB
:1017C000D358002B04DC094B7A6892000121D150D8
:1017D0007B6801337B607B68042BDFDDC046C0463D
:1017E000BD4602B080BDC046880000202000002019
:1017F00080B582B000AF7860FEF7FCFDFFF7C8FF50
:10180000C046BD4602B080BD0D488546FFF79CFF2F
:101810000C480D490D4A002302E0D458C45004334B
:10182000C4188C42F9D30A4A0A4C002301E0136021
:101830000432A242FBD302F009F9FFF7FFFCFEE7F6
:1018400000100020000000203C000020B43B0008F5
:101850003C0000203C010020FEE7000080B500AF06
:10186000074B1A68064B10210A431A60002000F04B
:1018700009F8FFF7AFFE00231800BD4680BDC04643
:101880000020024090B583B000AF7860144B1C6814
:10189000144B1B781900FA239800FEF735FC03005F
:1018A00019002000FEF730FC0300180000F02FF9AB
:1018B000031E01D001230FE07B68032B0BD879684E
:1018C00001235B420022180000F0FCF8064B7A6806
:1018D0001A60002300E001231800BD4603B090BD4C
:1018E0001C000020380000203400002080B500AF2C
:1018F000054B1B781A00054B1B68D218034B1A6066
:10190000C046BD4680BDC0463800002038010020DA
:1019100080B500AF024B1B681800BD4680BDC046B5
:101920003801002080B584B000AF7860FFF7F0FF89
:101930000300BB607B68FB60FB68013305D00A4B8A
:101940001B781A00FB689B18FB60C046FFF7E0FF9E
:101950000200BB68D31AFA689A42F7D8C046C0465C
:10196000BD4604B080BDC0463800002080B582B0BE
:1019700000AF0200FB1D1A70FB1D1B787F2B09D8DE
:10198000FB1D1B781A001F231A40044B01219140B4
:101990000A001A60C046BD4602B080BD00E100E00A
:1019A00090B583B000AF02003960FB1D1A70FB1DBB
:1019B0001B787F2B28D82F4AFB1D1B785BB29B0816
:1019C000C0339B009B58FA1D1278110003220A4075
:1019D000D200FF2191400A00D2431A4011003B6817
:1019E0009B01FF221A40FB1D1B78180003230340B4
:1019F000DB009A401F48FB1D1B785BB29B080A4323
:101A0000C0339B001A5031E01B4AFB1D1B781900A4
:101A10000F230B40083B9B0806339B00D31804336D
:101A20001B68FA1D1278110003220A40D200FF2120
:101A300091400A00D2431A4011003B689B01FF22EB
:101A40001A40FB1D1B78180003230340DB009A405B
:101A50000948FB1D1B781C000F232340083B9B08F3
:101A60000A4306339B00C31804331A60C046BD46C0
:101A700003B090BD00E100E000ED00E080B582B071
:101A800000AF78607B685A1E80235B049A4201D3C2
:101A9000012310E00A4B7A68013A5A6001235B4245
:101AA00003211800FFF77CFF054B00229A60044BCE
:101AB00007221A6000231800BD4602B080BDC04650
:101AC00010E000E080B584B000AFB9607A600F210B
:101AD0007B18021C1A70BA687B181B785BB2110065
:101AE0001800FFF75DFFC046BD4604B080BD80B55D
:101AF00082B000AF0200FB1D1A70FB1D1B785BB2A9
:101B00001800FFF733FFC046BD4602B080BD80B568
:101B100082B000AF78607B681800FFF7AFFF03006A
:101B20001800BD4602B080BD80B586B000AF7860B9
:101B3000396000237B6149E13B681B6801217A69B8
:101B400091400A001340FB60FB68002B00D13AE192
:101B50003B685B6803221340012B05D03B685B6840
:101B600003221340022B30D17B689B683B617B6969
:101B70005B0003229A401300DA433B6913403B6148
:101B80003B68DA687B695B009A4013003A6913434B
:101B90003B617B683A699A607B685B683B610122C4
:101BA0007B699A401300DA433B6913403B613B6811
:101BB0005B681B0901221A407B699A4013003A694D
:101BC00013433B617B683A695A603B685B68032258
:101BD0001340032B17D07B68DB683B617B695B009C
:101BE00003229A401300DA433B6913403B613B6890
:101BF0009A687B695B009A4013003A6913433B6122
:101C00007B683A69DA603B685B6803221340022B09
:101C100023D17B69DA087B6808329200D3583B6194
:101C20007B69072213409B000F229A401300DA437E
:101C30003B6913403B613B681A697B6907210B4094
:101C40009B009A4013003A6913433B617B69DA08B1
:101C50007B68083292003969D1507B681B683B6110
:101C60007B695B0003229A401300DA433B6913400F
:101C70003B613B685B6803221A407B695B009A40CA
:101C800013003A6913433B617B683A691A603B6809
:101C90005A68C0239B02134000D194E0514B9A69CB
:101CA000504B01210A439A614E4B9B69012213401C
:101CB000BB60BB684C4A7B699B0802339B009B5806
:101CC0003B617B69032213409B000F229A40130063
:101CD000DA433B6913403B617A689023DB059A4203
:101CE0000DD07B68414A934207D07B68404A9342BB
:101CF00001D1022304E0052302E0012300E00023D8
:101D00007A6903210A40920093403A6913433B6188
:101D100035497B699B0802339B003A695A50354B21
:101D20009B683B61FB68DA433B6913403B613B685E
:101D30005A6880235B03134003D03A69FB6813435E
:101D40003B612C4B3A699A602A4BDB683B61FB682C
:101D5000DA433B6913403B613B685A6880239B032D
:101D6000134003D03A69FB6813433B61214B3A6946
:101D7000DA60204B5B683B61FB68DA433B691340E8
:101D80003B613B685A6880239B02134003D03A6949
:101D9000FB6813433B61174B3A695A60154B1B684C
:101DA0003B61FB68DA433B6913403B613B685A681F
:101DB00080235B02134003D03A69FB6813433B6105
:101DC0000C4B3A691A607B6901337B613B681A6886
:101DD0007B69DA40131E00D0AEE6C046C046BD4661
:101DE00006B080BD00100240000001400004004821
:101DF000000800480004014080B584B000AF78605E
:101E00000A00BB1C1A807B681B69BA1C128813402D
:101E100004D00F23FB1801221A7003E00F23FB18D4
:101E200000221A700F23FB181B781800BD4604B05F
:101E300080BD80B582B000AF786008001100BB1C87
:101E4000021C1A807B1C0A1C1A707B1C1B78002B3E
:101E500004D0BB1C1A887B689A6103E0BB1C1A88FB
:101E60007B689A62C046BD4602B080BD80B584B032
:101E700000AF78600A00BB1C1A807B685B69FB605E
:101E8000BB1C1B88FA6813401A04FB68DB43B91CAF
:101E900009880B401A437B689A61C046BD4604B06E
:101EA00080BD000080B582B000AF78607B68002BF9
:101EB00001D101238FE07B6841229B5CDBB2002BC8
:101EC00007D17B684022002199547B681800FFF7F6
:101ED000A5FB7B684122242199547B681B681A6802
:101EE0007B681B6801218A431A607B685A687B689B
:101EF0001B683B490A401A617B681B689A687B68CB
:101F00001B6838490A409A607B68DB68012B08D15E
:101F10007B689A687B681B68802109020A439A6083
:101F200007E07B689A687B681B68842109020A4382
:101F30009A607B68DB68022B09D17B681B685A6852
:101F40007B681B68802109010A435A6007E07B68AF
:101F50001B685A687B681B6823490A405A607B6883
:101F60001B685A687B681B6820490A435A607B6873
:101F70001B68DA687B681B681A490A40DA607B686C
:101F80001A697B685B691A4311007B689B691A02B6
:101F90007B681B680A43DA607B68D9697B681A6AC8
:101FA0007B681B680A431A607B681B681A687B6839
:101FB0001B6801210A431A607B6800225A647B680F
:101FC0004122202199547B6800221A637B684222B7
:101FD0000021995400231800BD4602B080BDC046C0
:101FE000FFFFFFF0FF7FFFFFFFF7FFFF0080000212
:101FF00090B589B002AFF86008007A6019000A2332
:10200000FB18021C1A800823FB180A1C1A80FB68A4
:1020100041229B5CDBB2202B00D00AE1FB6840220E
:102020009B5C012B01D1022304E1FB6840220121CA
:102030009954FFF76DFC03003B6180231902F86897
:102040003B6900931923012200F01EF9031E01D001
:102050000123EFE0FB68412221219954FB684222D1
:1020600010219954FB6800225A64FB687A685A620E
:10207000FB680822BA1812885A85FB6800225A6346
:10208000FB685B8D9BB2FF2B06D9FB68FF221A858C
:1020900080235B047B6107E0FB685B8D9AB2FB6881
:1020A0001A8580239B047B61FB681B8D002B27D046
:1020B000FB685B6A1A78FB681B689A62FB685B6A5C
:1020C0005A1CFB685A62FB685B8D9BB2013B9AB25B
:1020D000FB685A85FB681B8D013B9AB2FB681A8529
:1020E000FB681B8DDBB20133DAB27C690A23FB1873
:1020F0001988F868514B0093230000F0A7FA6FE0AD
:10210000FB681B8DDAB27C690A23FB181988F86812
:102110004A4B0093230000F099FA61E03A69B96AEA
:10212000FB68180000F008F9031E01D0012381E0CC
:10213000FB685B6A1A78FB681B689A62FB685B6ADB
:102140005A1CFB685A62FB685B8D9BB2013B9AB2DA
:10215000FB685A85FB681B8D013B9AB2FB681A85A8
:10216000FB685B8D9BB2002B3AD0FB681B8D002B6C
:1021700036D1BA6AF8683B690093130000228021C7
:1021800000F082F8031E01D0012353E0FB685B8D51
:102190009BB2FF2B11D9FB68FF221A85FB681B8DB0
:1021A000DAB280235C040A23FB181988F86800233C
:1021B0000093230000F04AFA12E0FB685B8D9AB2AC
:1021C000FB681A85FB681B8DDAB280239C040A2306
:1021D000FB181988F86800230093230000F036FAF2
:1021E000FB685B8D9BB2002B98D13A69B96AFB689A
:1021F000180000F0E7F8031E01D001231AE0FB6885
:102200001B682022DA61FB681B685A68FB681B6840
:102210000B490A405A60FB68412220219954FB680F
:10222000422200219954FB68402200219954002346
:1022300000E002231800BD4607B090BD00200080DA
:1022400000E800FE80B582B000AF78607B681B6854
:102250009B6902221340022B03D17B681B6800227A
:102260009A627B681B689B6901221340012B07D08F
:102270007B681B689A697B681B6801210A439A6125
:10228000C046BD4602B080BD80B584B000AFF860E6
:10229000B9603B60FB1D1A703AE0BA693968FB68A7
:1022A000180000F0D3F8031E01D0012340E03B6882
:1022B00001332DD0FFF72CFB0200BB69D31A3A681B
:1022C0009A4202D33B68002B22D1FB681B689B69B2
:1022D000BA681340BA68D31A5A425341DBB21A00A3
:1022E000FB1D1B789A4213D1FB685B6C20221A43BA
:1022F000FB685A64FB68412220219954FB68422202
:1023000000219954FB6840220021995401230FE0D9
:10231000FB681B689B69BA681340BA68D31A5A42B3
:102320005341DBB21A00FB1D1B789A42B5D0002343
:102330001800BD4604B080BD80B584B000AFF86021
:10234000B9607A6032E07A68B968FB68180000F01A
:102350007DF8031E01D0012330E0BB68013325D096
:10236000FFF7D6FA02007B68D31ABA689A4202D302
:10237000BB68002B1AD1FB681B689B6902221340C3
:10238000022B13D0FB685B6C20221A43FB685A6453
:10239000FB68412220219954FB6842220021995474
:1023A000FB68402200219954012307E0FB681B6869
:1023B0009B6902221340022BC5D100231800BD46A1
:1023C00004B080BD80B584B000AFF860B9607A60B9
:1023D0002FE07A68B968FB68180000F037F8031E30
:1023E00001D001232DE0FFF793FA02007B68D31A96
:1023F000BA689A4202D3BB68002B1AD1FB681B68EB
:102400009B6920221340202B13D0FB685B6C202299
:102410001A43FB685A64FB68412220219954FB68E7
:10242000422200219954FB68402200219954012343
:1024300007E0FB681B689B6920221340202BC8D152
:1024400000231800BD4604B080BD000090B58BB0DD
:1024500000AFF860B9607A602723FB1800221A7079
:10246000FB681B689B69BB6100233B627B68FB6167
:10247000BB691022134000D182E0FB681B68102268
:10248000DA6160E027243B193A1912781A70BB68A8
:10249000013358D0FFF73CFA0200FB69D31ABA683F
:1024A0009A4206D33B193A1912781A70BB68002B6E
:1024B00049D1FB681B685A688023DB0113407B61AC
:1024C00013203B18FA684221525C1A70FB681B68A3
:1024D0009A6980231B021A4080231B029A4226D14C
:1024E0007A698023DB019A4221D03B181B78202B8C
:1024F0001DD0FB681B685A68FB681B688021C901F6
:102500000A435A60FFF704FA0300FB610FE0FFF78C
:10251000FFF90200FB69D31A192B08D93B6A202264
:1025200013433B622723FB1801221A700BE0FB6860
:102530001B689B692022134027217A187918097893
:102540001170202BE3D1FB681B689B69202213408C
:10255000202B04D02723FB181B78002B92D0272395
:10256000FB181B78002B03D1FB681B682022DA6163
:102570003B6A042213433B622723FB1801221A7093
:10258000FB681B689B69BB61BA6980235B001340D1
:102590000CD03B6A012213433B62FB681B6880221C
:1025A0005200DA612723FB1801221A70BA698023CE
:1025B000DB0013400CD03B6A082213433B62FB68EC
:1025C0001B688022D200DA612723FB1801221A70CF
:1025D000BA6980239B0013400CD03B6A022213434C
:1025E0003B62FB681B6880229200DA612723FB189C
:1025F00001221A702723FB181B78002B1DD0FB68C3
:102600001800FFF71FFEFB681B685A68FB681B6811
:102610000D490A405A60FB685A6C3B6A1A43FB68D2
:102620005A64FB68412220219954FB684222002110
:102630009954FB684022002199542723FB181B78EA
:102640001800BD460BB090BD00E800FE90B587B005
:1026500000AFF860080011007B600A243B19021CDF
:102660001A8009203B180A1C1A703B191B889B050D
:102670009A0D3B181B781904FF231B040B401A43C7
:102680007B681A43BB6A13435B005B087B61FB6892
:102690001B685B68BA6A510D8022D2000A40074964
:1026A0000A43D2431A401100FB681B687A690A4347
:1026B0005A60C046BD4607B090BDC046FF63FF03E9
:1026C00080B582B000AF786039607B6841229B5C46
:1026D000DBB2202B38D17B6840229B5C012B01D1DF
:1026E000022332E07B684022012199547B68412219
:1026F000242199547B681B681A687B681B68012138
:102700008A431A607B681B681A687B681B681149DA
:102710000A401A607B681B6819687B681B683A6806
:102720000A431A607B681B681A687B681B68012172
:102730000A431A607B684122202199547B68402219
:1027400000219954002300E002231800BD4602B086
:1027500080BDC046FFEFFFFF80B584B000AF78605A
:1027600039607B6841229B5CDBB2202B39D17B68CE
:1027700040229B5C012B01D1022333E07B68402285
:10278000012199547B684122242199547B681B685C
:102790001A687B681B6801218A431A607B681B6882
:1027A0001B68FB60FB68114A1340FB603B681B021F
:1027B000FA681343FB607B681B68FA681A607B68E1
:1027C0001B681A687B681B6801210A431A607B68D2
:1027D0004122202199547B684022002199540023F2
:1027E00000E002231800BD4604B080BDFFF0FFFFEB
:1027F00080B584B000AF78600A4B9A69094B01211B
:102800000A439A61074B9B6901221340FB60FB68F6
:10281000054B1968044B7A680A431A60C046BD46E6
:1028200004B080BD001002400000014080B588B0B7
:1028300000AF78607B68002B01D1012301E37B6846
:102840001B680122134000D18DE0C34B5B680C2252
:102850001340042B0ED0C04B5B680C221340082B96
:1028600016D1BD4B5A6880235B021A4080235B025D
:102870009A420DD1B84B1A6880239B02134000D1B5
:1028800070E07B685B68002B00D06BE00123D8E22E
:102890007B685B68012B07D1AF4B1A68AE4B802178
:1028A00049020A431A602FE07B685B68002B0CD159
:1028B000A94B1A68A84BA9490A401A60A64B1A6886
:1028C000A54BA7490A401A601EE07B685B68052B90
:1028D0000ED1A14B1A68A04B8021C9020A431A608D
:1028E0009D4B1A689C4B802149020A431A600BE0F9
:1028F000994B1A68984B99490A401A60964B1A6886
:10290000954B97490A401A607B685B68002B14D08E
:10291000FEF7FEFF0300BB6108E0FEF7F9FF0200CF
:10292000BB69D31A642B01D903238AE28A4B1A6844
:1029300080239B021340F0D015E0FEF7E9FF03006F
:10294000BB6108E0FEF7E4FF0200BB69D31A642B09
:1029500001D9032375E2804B1A6880239B02134040
:10296000F0D100E0C0467B681B680222134000D112
:1029700069E0794B5B680C2213400BD0764B5B68A7
:102980000C221340082B1CD1734B5A6880235B0226
:10299000134016D1704B1B680222134005D07B6890
:1029A000DB68012B01D001234BE26B4B1B68F82243
:1029B000934319007B681B69DA00674B0A431A606E
:1029C00041E07B68DB68002B24D0634B1A68624BC4
:1029D00001210A431A60FEF79BFF0300BB6108E078
:1029E000FEF796FF0200BB69D31A022B01D903231D
:1029F00027E2594B1B6802221340F1D0564B1B684B
:102A0000F822934319007B681B69DA00524B0A4392
:102A10001A6018E0504B1A684F4B01218A431A6024
:102A2000FEF776FF0300BB6108E0FEF771FF0200CE
:102A3000BB69D31A022B01D9032302E2464B1B6860
:102A400002221340F1D17B681B680822134036D064
:102A50007B68DB69002B19D03F4B5A6A3E4B012142
:102A60000A435A62FEF754FF0300BB6108E0FEF719
:102A70004FFF0200BB69D31A022B01D90323E0E107
:102A8000354B5B6A02221340F1D018E0324B5A6A90
:102A9000314B01218A435A62FEF73AFF0300BB61C2
:102AA00008E0FEF735FF0200BB69D31A022B01D9FB
:102AB0000323C6E1284B5B6A02221340F1D17B68F5
:102AC0001B680422134000D1B4E01F203B180022F1
:102AD0001A70214BDA6980235B05134010D11E4B1D
:102AE000DA691D4B802149050A43DA611A4BDA691C
:102AF00080235B051340FB60FB683B1801221A70C2
:102B0000184B1A6880235B0013401AD1154B1A68C2
:102B1000144B802149000A431A60FEF7F9FE0300B6
:102B2000BB6108E0FEF7F4FE0200BB69D31A642B18
:102B300001D9032385E10B4B1A6880235B00134006
:102B4000F0D07B689B68012B0ED1034B1A6A024BB5
:102B500001210A431A6235E000100240FFFFFEFF28
:102B6000FFFFFBFF007000407B689B68002B0CD1CF
:102B7000B64B1A6AB54B01218A431A62B34B1A6AE3
:102B8000B24B04218A431A621CE07B689B68052BC8
:102B90000CD1AE4B1A6AAD4B04210A431A62AB4BFF
:102BA0001A6AAA4B01210A431A620BE0A74B1A6A60
:102BB000A64B01218A431A62A44B1A6AA34B042133
:102BC0008A431A627B689B68002B14D0FEF7A0FE34
:102BD0000300BB6109E0FEF79BFE0200BB69D31A4C
:102BE0009B4A934201D903232BE1984B1B6A022293
:102BF0001340F0D013E0FEF78BFE0300BB6109E049
:102C0000FEF786FE0200BB69D31A914A934201D9AE
:102C1000032316E18D4B1B6A02221340F0D11F23C0
:102C2000FB181B78012B05D1884BDA69874B894942
:102C30000A40DA617B681B681022134063D07B680E
:102C40005B69012B2AD1814B5A6B804B04210A43CB
:102C50005A637E4B5A6B7D4B01210A435A63FEF740
:102C600057FE0300BB6108E0FEF752FE0200BB699D
:102C7000D31A022B01D90323E3E0744B5B6B0222CE
:102C80001340F1D0714B5B6BF822934319007B68C2
:102C90009B69DA006D4B0A435A6334E07B685B69D9
:102CA000053311D1694B5A6B684B04218A435A632F
:102CB000664B5B6BF822934319007B689B69DA00D3
:102CC000624B0A435A631EE0604B5A6B5F4B042110
:102CD0000A435A635D4B5A6B5C4B01218A435A632A
:102CE000FEF716FE0300BB6108E0FEF711FE0200CE
:102CF000BB69D31A022B01D90323A2E0534B5B6BB0
:102D000002221340F1D17B681B6A002B00D197E0AF
:102D10004E4B5B680C221340082B00D16BE07B68A4
:102D20001B6A022B4CD1494B1A68484B4A490A404E
:102D30001A60FEF7EDFD0300BB6108E0FEF7E8FD59
:102D40000200BB69D31A022B01D9032379E03F4B60
:102D50001A6880239B041340F0D13C4BDB6A0F229E
:102D6000934319007B68DA6A384B0A43DA62374BBF
:102D70005B683A4A134019007B689A6A7B685B6A11
:102D80001A43324B0A435A60304B1A682F4B80214A
:102D900049040A431A60FEF7BBFD0300BB6108E06B
:102DA000FEF7B6FD0200BB69D31A022B01D903233B
:102DB00047E0264B1A6880239B041340F0D03FE085
:102DC000224B1A68214B24490A401A60FEF7A0FDE5
:102DD0000300BB6108E0FEF79BFD0200BB69D31A4C
:102DE000022B01D903232CE0184B1A6880239B0483
:102DF0001340F0D124E07B681B6A012B01D1012331
:102E00001FE0124B5B687B61104BDB6A3B617A69A8
:102E100080235B021A407B685B6A9A420ED13B6951
:102E20000F221A407B68DB6A9A4207D17A69F02345
:102E30009B031A407B689B6A9A4201D0012300E001
:102E400000231800BD4608B080BDC04600100240F7
:102E500088130000FFFFFFEFFFFFFFFEFFFFC2FF31
:102E600080B584B000AF786039607B68002B01D1F9
:102E70000123B3E05B4B1B68012213403A689A427E
:102E800011D9584B1B68012293431900554B3A68DE
:102E90000A431A60534B1B68012213403A689A4256
:102EA00001D001239AE07B681B680222134015D0F1
:102EB0007B681B680422134006D04B4B5A684A4B70
:102EC000E021C9000A435A60474B5B68F0229343F4
:102ED00019007B689A68444B0A435A607B681B68F8
:102EE0000122134040D07B685B68012B07D13E4B29
:102EF0001A6880239B02134014D101236EE07B6883
:102F00005B68022B07D1384B1A6880239B0413405F
:102F100008D1012362E0344B1B680222134001D127
:102F200001235BE0304B5B680322934319007B680D
:102F30005A682D4B0A435A60FEF7EAFC0300FB6017
:102F400009E0FEF7E5FC0200FB68D31A274A93422A
:102F500001D9032342E0244B5B680C221A407B68B2
:102F60005B689B009A42ECD11E4B1B680122134008
:102F70003A689A4211D21B4B1B68012293431900F5
:102F8000184B3A680A431A60164B1B68012213401B
:102F90003A689A4201D0012320E07B681B68042232
:102FA000134009D0104B5B68114A134019007B682D
:102FB000DA680D4B0A435A6000F020F801000A4B12
:102FC0005B681B090F2213400A4AD35C0A00DA40EF
:102FD000094B1A600020FEF755FC00231800BD467F
:102FE00004B080BD002002400010024088130000A1
:102FF000FFF8FFFF7C3B00081C00002080B586B076
:1030000000AF0023FB600023BB6000237B61002333
:103010007B6000233B61204B5B68FB60FB680C22FC
:103020001340042B02D0082B03D02CE01B4B3B6138
:103030002CE0FB689B0C0F221340194AD35C7B6089
:10304000154BDB6A0F221340164AD35CBB60FA684B
:1030500080235B02134009D0B9681048FDF754F88B
:1030600003001A007B6853437B6109E079680A001A
:103070005201521A93019B1ADB005B181B027B6101
:103080007B693B6102E0054B3B61C0463B69180030
:10309000BD4606B080BDC0460010024000127A0056
:1030A0008C3B00089C3B000880B586B000AF786080
:1030B00000233B610023FB607B681A6880235B026E
:1030C000134000D18EE017203B1800221A70574B96
:1030D000DA6980235B05134010D1544BDA69534BF6
:1030E000802149050A43DA61504BDA6980235B0588
:1030F0001340BB60BB683B1801221A704C4B1A6826
:1031000080235B0013401AD1494B1A68484B802139
:1031100049000A431A60FEF7FBFB03003B6108E02D
:10312000FEF7F6FB02003B69D31A642B01D9032397
:1031300077E03F4B1A6880235B001340F0D03B4B95
:103140001A6AC0239B001340FB60FB68002B34D03D
:103150007B685A68C0239B001340FA689A422CD0BF
:10316000324B1B6A334A1340FB60304B1A6A2F4BB9
:10317000802149020A431A622C4B1A6A2B4B2E49B2
:103180000A401A62294BFA681A62FB68012213404E
:1031900013D0FEF7BDFB03003B6109E0FEF7B8FB6F
:1031A00002003B69D31A254A934201D9032338E030
:1031B0001E4B1B6A02221340F0D01C4B1B6A1D4A97
:1031C000134019007B685A68184B0A431A62172388
:1031D000FB181B78012B05D1144BDA69134B1849E6
:1031E0000A40DA617B681B680122134009D00F4B4B
:1031F0001B6B0322934319007B689A680B4B0A43AD
:103200001A637B681B682022134009D0074B1B6B95
:103210001022934319007B68DA68044B0A431A634F
:1032200000231800BD4606B080BDC0460010024015
:1032300000700040FFFCFFFFFFFFFEFF881300004F
:10324000FFFFFFEF80B582B000AF78607B68002B96
:1032500001D1012342E07B683D229B5CDBB2002B65
:1032600007D17B683C22002199547B681800FEF747
:1032700023FA7B683D22022199547B681A687B6897
:1032800004331900100000F05BFA7B68462201212C
:1032900099547B683E22012199547B683F22012189
:1032A00099547B684022012199547B684122012175
:1032B00099547B684222012199547B684322012161
:1032C00099547B684422012199547B68452201214D
:1032D00099547B683D220121995400231800BD4672
:1032E00002B080BD80B584B000AF78607B683D22BD
:1032F0009B5CDBB2012B01D0012336E07B683D22D1
:10330000022199547B681B68DA687B681B6801217D
:103310000A43DA607B681B68164A93420AD07B68CE
:103320001A688023DB059A4204D07B681B68124A26
:10333000934211D17B681B689B6807221340FB6096
:10334000FB68062B10D07B681B681A687B681B68BB
:1033500001210A431A6007E07B681B681A687B68D2
:103360001B6801210A431A6000231800BD4604B0FF
:1033700080BDC046002C01400004004080B584B0F0
:1033800000AF78607B681B68DB68FB607B681B684C
:103390001B69BB60BB680222134021D0FB6802227C
:1033A00013401DD07B681B68032252421A617B6860
:1033B00001221A777B681B689B690322134004D0A3
:1033C0007B68180000F0A4F907E07B68180000F0A3
:1033D00097F97B68180000F0A3F97B6800221A7740
:1033E000BB680422134022D0FB68042213401ED085
:1033F0007B681B68052252421A617B6802221A7799
:103400007B681B689A69C0239B00134004D07B68CB
:10341000180000F07DF907E07B68180000F070F9F3
:103420007B68180000F07CF97B6800221A77BB6883
:103430000822134021D0FB68082213401DD07B686E
:103440001B68092252421A617B6804221A777B6842
:103450001B68DB690322134004D07B68180000F06E
:1034600057F907E07B68180000F04AF97B681800FC
:1034700000F056F97B6800221A77BB6810221340CF
:1034800022D0FB68102213401ED07B681B681122DB
:1034900052421A617B6808221A777B681B68DA69D6
:1034A000C0239B00134004D07B68180000F030F963
:1034B00007E07B68180000F023F97B68180000F033
:1034C0002FF97B6800221A77BB68012213400CD0C9
:1034D000FB680122134008D07B681B68022252421D
:1034E0001A617B681800FEF783F9BB6880221340DD
:1034F0000CD0FB688022134008D07B681B688122B7
:1035000052421A617B68180000F098FABB684022AA
:1035100013400CD0FB684022134008D07B681B6826
:10352000412252421A617B68180000F001F9BB6821
:10353000202213400CD0FB682022134008D07B6867
:103540001B68212252421A617B68180000F06EFA53
:10355000C046BD4604B080BD80B584B000AF786081
:1035600039600F23FB1800221A707B683C229B5C99
:10357000012B01D10223BCE07B683C22012199543C
:103580007B683D22022199547B681B689B68BB6065
:10359000BB6877229343BB60BB68584A1340BB604B
:1035A0007B681B68BA689A603B681B68802292013E
:1035B000934240D080229201934200D988E0802239
:1035C0005201934200D188E080225201934200D9F7
:1035D0007EE0702B18D000D97AE0602B4FD000D954
:1035E00076E0502B3BD000D972E0402B57D000D969
:1035F0006EE0302B63D06BD8202B60D068D8002BC6
:103600005DD0102B5BD063E07B6818683B689968DD
:103610003B685A683B68DB6800F090F97B681B6880
:103620009B68BB60BB6877221343BB607B681B68E9
:10363000BA689A6052E07B6818683B6899683B6892
:103640005A683B68DB6800F079F97B681B689A6808
:103650007B681B688021C9010A439A603EE07B6851
:1036600018683B6859683B68DB681A0000F0ECF8A2
:103670007B681B685021180000F046F92EE07B683B
:1036800018683B6859683B68DB681A0000F00AF963
:103690007B681B686021180000F036F91EE07B682B
:1036A00018683B6859683B68DB681A0000F0CCF882
:1036B0007B681B684021180000F026F90EE07B684B
:1036C0001A683B681B681900100000F01DF905E03E
:1036D0000F23FB1801221A7000E0C0467B683D22D0
:1036E000012199547B683C22002199540F23FB1837
:1036F0001B781800BD4604B080BDC046FF00FFFF28
:1037000080B582B000AF7860C046BD4602B080BDD3
:1037100080B582B000AF7860C046BD4602B080BDC3
:1037200080B582B000AF7860C046BD4602B080BDB3
:1037300080B582B000AF7860C046BD4602B080BDA3
:1037400080B584B000AF786039607B681B68FB602F
:103750007B68374A934208D07A688023DB059A4217
:1037600003D07B68334A934208D1FB6870229343AD
:10377000FB603B685B68FA681343FB607B682C4A1C
:10378000934214D07A688023DB059A420FD07B687D
:10379000284A93420BD07B68274A934207D07B6824
:1037A000264A934203D07B68254A934208D1FB689E
:1037B000244A1340FB603B68DB68FA681343FB60F4
:1037C000FB68802293431A003B685B691343FB60EC
:1037D0007B68FA681A603B689A687B68DA623B68C3
:1037E0001A687B689A627B68114A934207D07B68AB
:1037F000124A934203D07B68114A934203D13B683B
:103800001A697B681A637B6801225A617B681B69AD
:1038100001221340012B06D17B681B6901229343CF
:103820001A007B681A61C046BD4604B080BDC04620
:10383000002C0140000400400020004000440140F2
:1038400000480140FFFCFFFF80B586B000AFF86084
:10385000B9607A60FB681B6A7B61FB681B6A0122A6
:1038600093431A00FB681A62FB689B693B613B69E2
:10387000F02293433B617B681B013A6913433B6130
:103880007B690A2293437B617A69BB6813437B613E
:10389000FB683A699A61FB687A691A62C046BD465C
:1038A00006B080BD80B586B000AFF860B9607A60C0
:1038B000FB681B6A7B61FB681B6A102293431A003A
:1038C000FB681A62FB689B693B613B690D4A1340C8
:1038D0003B617B681B033A6913433B617B69A02210
:1038E00093437B61BB681B017A6913437B61FB686F
:1038F0003A699A61FB687A691A62C046BD4606B0A9
:1039000080BDC046FF0FFFFF80B584B000AF786078
:1039100039607B689B68FB60FB6870229343FB60A7
:103920003A68FB68134307221343FB607B68FA681D
:103930009A60C046BD4604B080BD000080B586B028
:1039400000AFF860B9607A603B60FB689B687B61A0
:103950007B69094A13407B613B681A027B681A4302
:10396000BB6813437A6913437B61FB687A699A6089
:10397000C046BD4606B080BDFF00FFFF80B584B0E5
:1039800000AF786039607B683C229B5C012B01D1E1
:10399000022342E07B683C22012199547B683D224E
:1039A000022199547B681B685B68FB607B681B681D
:1039B0009B68BB60FB6870229343FB603B681B689D
:1039C000FA681343FB607B681B68FA685A607B687F
:1039D0001B68144A93420AD07B681A688023DB056F
:1039E0009A4204D07B681B680F4A93420CD1BB6893
:1039F00080229343BB603B685B68BA681343BB603B
:103A00007B681B68BA689A607B683D2201219954E3
:103A10007B683C220021995400231800BD4604B065
:103A200080BDC046002C01400004004080B582B03B
:103A300000AF7860C046BD4602B080BD80B582B0A0
:103A400000AF7860C046BD4602B080BD70B50026AC
:103A50000C4D0D4C641BA410A64209D1002600F0A9
:103A600021F80A4D0A4C641BA410A64205D170BD72
:103A7000B300EB5898470136EEE7B300EB58984790
:103A80000136F2E7AC3B0008AC3B0008AC3B000859
:103A9000B03B000803008218934200D170471970B0
:103AA0000133F9E7F8B5C046F8BC08BC9E4670473C
:0C3AB000F8B5C046F8BC08BC9E46704744
:103ABC004D4F44453A204155544F0000504C454120
:103ACC00534520534C4F5720444F574E0000000095
:103ADC004D4F44453A204D414E55414C000000009D
:103AEC0057414954204C454420544F20474F000027
:103AFC004D4F44453A2053455454494E470000001D
:103B0C00494E4352454153452054494D454C45443B
:103B1C00000000004D4F44453A204155544F0000E1
:103B2C00504C4541534520534C4F5720444F574E12
:103B3C0000000000CC0400084A0500080606000836
:103B4C006E0600082A0700086C0F00089E0F00087C
:103B5C00D00F00080210000834100008661000088E
:103B6C0098100008CA100008FC1000082E1100085C
:103B7C000000000000000000010203040607080911
:103B8C0002030405060708090A0B0C0D0E0F101092
:103B9C000102030405060708090A0B0C0D0E0F1091
:043BAC00E900000824
:043BB000C100000848
:103BB400E8030000D007000088130000102700006D
:103BC400204E0000102700008813000000127A0025
:103BD40000000000000000000000000001000000E0
:0C3BE400000000000400000001000000D0
:0400000508001809CE
:00000001FF
