:020000040800F2
:1000000000100020B5200008D91F0008E11F0008DB
:1000100000000000000000000000000000000000E0
:10002000000000000000000000000000E91F0008C0
:100030000000000000000000F31F0008FD1F000882
:1000400005210008052100080521000805210008F8
:1000500005210008052100080521000805210008E8
:100060000000000005210008052100080521000806
:100070000521000805210008052100080D200008C1
:100080000521000800000000000000000521000814
:1000900000000000052100080521000805210008D6
:1000A00000000000052100080000000025200008D5
:1000B0000000000000000000000000000000000040
:1000C00010B5064C2378002B07D1054B002B02D02E
:1000D000044800E000BF0123237010BD7800002019
:1000E00000000000045A0008044B10B5002B03D098
:1000F0000349044800E000BF10BDC04600000000F6
:100100007C000020045A0008002243088B4274D36C
:1001100003098B425FD3030A8B4244D3030B8B4208
:1001200028D3030C8B420DD3FF22090212BA030C11
:100130008B4202D31212090265D0030B8B4219D3F2
:1001400000E0090AC30B8B4201D3CB03C01A524112
:10015000830B8B4201D38B03C01A5241430B8B425A
:1001600001D34B03C01A5241030B8B4201D30B0343
:10017000C01A5241C30A8B4201D3CB02C01A52416A
:10018000830A8B4201D38B02C01A5241430A8B422D
:1001900001D34B02C01A5241030A8B4201D30B0216
:1001A000C01A5241CDD2C3098B4201D3CB01C01A30
:1001B000524183098B4201D38B01C01A524143093A
:1001C0008B4201D34B01C01A524103098B4201D328
:1001D0000B01C01A5241C3088B4201D3CB00C01A95
:1001E000524183088B4201D38B00C01A524143080D
:1001F0008B4201D34B00C01A5241411A00D2014632
:10020000524110467047FFE701B5002000F0F0F8BA
:1002100002BDC0460029F7D076E7704703460B437E
:100220007FD4002243088B4274D303098B425FD3EF
:10023000030A8B4244D3030B8B4228D3030C8B421B
:100240000DD3FF22090212BA030C8B4202D3121201
:10025000090265D0030B8B4219D300E0090AC30BD6
:100260008B4201D3CB03C01A5241830B8B4201D383
:100270008B03C01A5241430B8B4201D34B03C01A6C
:100280005241030B8B4201D30B03C01A5241C30AE4
:100290008B4201D3CB02C01A5241830A8B4201D355
:1002A0008B02C01A5241430A8B4201D34B02C01A3F
:1002B0005241030A8B4201D30B02C01A5241CDD2E4
:1002C000C3098B4201D3CB01C01A524183098B422F
:1002D00001D38B01C01A524143098B4201D34B0118
:1002E000C01A524103098B4201D30B01C01A52417B
:1002F000C3088B4201D3CB00C01A524183088B4202
:1003000001D38B00C01A524143088B4201D34B00EA
:10031000C01A5241411A00D201465241104670475C
:100320005DE0CA0F00D04942031000D34042534061
:1003300000229C4603098B422DD3030A8B4212D321
:10034000FC22890112BA030A8B420CD38901921153
:100350008B4208D3890192118B4204D389013AD090
:10036000921100E08909C3098B4201D3CB01C01A65
:10037000524183098B4201D38B01C01A5241430978
:100380008B4201D34B01C01A524103098B4201D366
:100390000B01C01A5241C3088B4201D3CB00C01AD3
:1003A000524183088B4201D38B00C01A5241D9D2EB
:1003B00043088B4201D34B00C01A5241411A00D26C
:1003C0000146634652415B10104601D34042002B68
:1003D00000D54942704763465B1000D3404201B5E7
:1003E000002000F005F802BD0029F8D016E770479C
:1003F0007047C04680B500AF214B1B78002B05D05D
:100400001F4B1B78013BDAB21D4B1A701C4B1B783B
:10041000002B0DD19023DB058021180002F0C0F9DC
:10042000031E05D1174B01221A60154B0A221A70C0
:10043000134B1B78002B0DD19023DB0508211800EE
:1004400002F0AEF9031E05D10E4B01225A600C4B8F
:100450000A221A700A4B1B78002B0DD19023DB0562
:100460000221180002F09CF9031E05D1054B012260
:100470009A60034B0A221A70C046BD4680BDC04632
:10048000A00000209400002080B582B000AF78600A
:10049000084B7A689200D358012B06D1054B7A6835
:1004A00092000021D150012300E000231800BD4636
:1004B00002B080BD9400002080B500AFC64B1B6821
:1004C000042B00D984E19A00C44BD3181B689F46C3
:1004D00001F0A6F8C24B1A68C24B1B68D318FA2267
:1004E00091001800FFF79AFE03001A00BE4B1A6035
:1004F000BB4B1B68FA2291001800FFF78FFE030028
:100500001A00BA4B1A60B84B1A68B84B1B6819002E
:10051000100001F055F8B04B01221A609023DB0562
:1005200001221021180002F058F99023DB05012266
:100530000421180002F051F9802359019023DB05B2
:100540000022180002F049F9A94B002210211800DE
:1005500002F043F9A24B1B681900A64B00221800B9
:1005600001F0E8FAA44BA34A1A6000F04DFE002106
:10057000012000F054FEA14B180000F030FE0021D5
:10058000002000F04CFE9E4B180000F028FEA5E075
:100590000120FFF779FF0300012B00D09BE0964B71
:1005A0001B68180001F0B0FB964B180001F0ACFB83
:1005B000954B180001F0A8FB944B0A226421180007
:1005C00001F0B8FA844B05221A6000F051FE01F0E8
:1005D00027F8802359019023DB050022180002F040
:1005E000FCF8834B00221021180002F0F6F890234B
:1005F000DB0501220421180002F0EFF880235900E6
:100600009023DB050122180002F0E7F800F0FCFD62
:100610000021012000F003FE7D4B180000F0DFFDFB
:100620000021002000F0FBFD7A4B180000F0D7FD00
:10063000CFE00120FFF728FF0300012B4DD16E4BC7
:100640001B68180001F060FB6E4B180001F05CFBAA
:100650006D4B180001F058FB6C4B0A220A21180060
:1006600001F068FA5C4B06221A6000F001FE00F00F
:10067000D7FF9023DB0500220421180002F0ADF81B
:10068000802359009023DB050022180002F0A5F812
:10069000802359019023DB050122180002F09DF808
:1006A000534B01221021180002F097F800F0ACFD26
:1006B0000021012000F0B3FD554B180000F08FFD24
:1006C0000021002000F0ABFD524B180000F087FD28
:1006D0007FE0C04602E0C04600E0C0460020FFF7D1
:1006E000D3FE0300012B2AD1434B1B68180001F0F5
:1006F0000BFB444B180001F007FB434B180001F0C3
:1007000003FBFA235A00444B0A21180001F012FAA5
:1007100000F086FF00F0ACFD00F076FD0021012026
:1007200000F07DFD3D4B180000F059FD0021002038
:1007300000F075FD3A4B180000F051FD49E0022031
:10074000FFF7A2FE0300012B43D1264B00221A60C3
:10075000234B00221A600121002000F031FF1E4BC4
:1007600008221A60244B1B68180001F0CDFA254BB3
:10077000180001F0C9FA2B4B180001F0C5FA2A4BFA
:100780000A220A21180001F0D5F900F049FF802360
:1007900059009023DB050022180002F01EF8144BCC
:1007A00000221021180002F018F800F02DFD0021A1
:1007B000012000F034FD1D4B180000F010FD002159
:1007C000002000F02CFD1A4B180000F008FD00E09E
:1007D000C046BD4680BDC046B0000020BC5A0008DF
:1007E0001400002018000020B4000020B8000020F1
:1007F00000040048E5080008A40000201C5A000876
:10080000285A0008B9040008B9120008D50A0008DF
:100810003C5A00084C5A0008211000085C5A000895
:10082000685A00088D0A00088D0D0008785A0008E3
:10083000885A000880B500AF9023DB050122102103
:10084000180001F0CAFF9023DB05012204211800E3
:1008500001F0C3FF802359019023DB05002218001B
:1008600001F0BBFF174B00221021180001F0B5FF6B
:10087000154B01221A60154B1A68154B1B68D318CB
:10088000FA2291001800FFF7C9FC03001A00114B6F
:100890001A600E4B1B68FA2291001800FFF7BEFC8D
:1008A00003001A000C4B1A60084B1B6819000B4B15
:1008B0000022180001F03EF9094B084A1A60C046B0
:1008C000BD4680BD00040048B00000201400002098
:1008D00018000020B4000020B8000020E50800083F
:1008E000A400002080B500AF154B01221021180094
:1008F00001F073FF124B00222021180001F06DFF60
:10090000104B02221A60104B1B68FA22910018004B
:10091000FFF784FC03001A000C4B1A600B4B1A689B
:100920000B4B1A60084B1B6819000A4B0022180079
:1009300001F000F9084B074A1A60C046BD4680BD69
:1009400000040048B000002018000020B80000207B
:10095000B40000205D090008A400002080B500AFAD
:10096000802359019023DB050122180001F035FF97
:100970001F4B01222021180001F02FFF8023590076
:100980009023DB050022180001F027FF9023DB05F0
:1009900000220421180001F020FF164B03221A60E8
:1009A000154B1B68FA2291001800FFF737FC030073
:1009B0001A00124B1A60104B1A68114B1B68D3189F
:1009C000FA2291001800FFF729FC03001A000D4BD2
:1009D0001A60094B1B6819000B4B0022180001F02C
:1009E000A9F80A4B084A1A60C046BD4680BDC046F9
:1009F00000040048B000002014000020B4000020D3
:100A000018000020B8000020110A0008A4000020EF
:100A100080B500AF9023DB0500221021180001F003
:100A2000DCFE802359009023DB050122180001F031
:100A3000D4FE104B04221A600F4B1B68FA2291005F
:100A40001800FFF7EBFB03001A000C4B1A600B4B6E
:100A50001A680B4B1A60084B1B681900094B0022DF
:100A6000180001F067F8084B064A1A60C046BD46F8
:100A700080BDC046B000002018000020B800002053
:100A8000B400002035080008A400002080B500AFA5
:100A90000E4B1B68002B04DD0C4B1B685A1E0B4BC6
:100AA0001A600B4B1B68002B04DD094B1B685A1E98
:100AB000074B1A60054B1A68054B1B68190010009C
:100AC00000F07EFDC046BD4680BDC046B40000209B
:100AD000B800002080B500AF9D4B1B68052B03D0EC
:100AE000062B00D17CE030E10120FFF7CDFC0300B4
:100AF000012B1FD1964B06221A609023DB050122A1
:100B00000421180001F069FE802359009023DB05C1
:100B10000122180001F061FE802359019023DB05BA
:100B20000022180001F059FE8A4B00221021180003
:100B300001F053FE0020FFF7A7FC0300012B00D0BB
:100B4000C9E0854B0A220A21180000F0F3FF834B0D
:100B500014220A21180000F0EDFF814B180001F06B
:100B6000D3F87B4B01221A607E4B1A687E4B1B68C0
:100B7000D318FA2291001800FFF750FB03001A0067
:100B80007A4B1A60774B1B68FA2291001800FFF726
:100B900045FB03001A00764B1A60744B1A68744BBD
:100BA0001B681900100000F00BFD6E4B1B6819004C
:100BB000704B0022180000F0BDFF00F025FB002163
:100BC000012000F02CFB6C4B180000F008FB00210A
:100BD000002000F024FB694B180000F000FBB4E09B
:100BE0000120FFF751FC0300012B1FD1584B0522B8
:100BF0001A60802359019023DB050122180001F0BF
:100C0000ECFD544B01221021180001F0E6FD902369
:100C1000DB0500220421180001F0DFFD80235900CC
:100C20009023DB050022180001F0D7FD0020FFF71C
:100C30002BFC0300012B50D1474B0A220A2118003C
:100C400000F078FF454B14220A21180000F072FFD3
:100C5000434B180001F058F83D4B03221A60414BFA
:100C60001B68FA2291001800FFF7D8FA03001A0057
:100C70003E4B1A603B4B1A683B4B1B68D318FA2259
:100C800091001800FFF7CAFA03001A00384B1A60E7
:100C9000364B1A68364B1B681900100000F090FCA8
:100CA000304B1B681900364B0022180000F042FF41
:100CB00000F0AAFA0021012000F0B1FA2E4B180032
:100CC00000F08DFA0021002000F0A9FA2B4B18004B
:100CD00000F085FA39E0C04600E0C0460220FFF788
:100CE000D3FB0300012B30D11F4B00221A601D4B98
:100CF00000221A600121002000F062FC144B08223F
:100D00001A60174B180000F0FFFF1E4B180000F090
:100D1000FBFF1D4B0A226421180000F00BFF0F4B54
:100D200014220A21180000F005FF00F079FC80234E
:100D300059009023DB050122180001F04EFD054B00
:100D400001221021180001F048FDBD4680BDC046BB
:100D5000B000002000040048B9040008B9120008DF
:100D6000D50A00081400002018000020B40000205C
:100D7000B8000020E50800089C5A0008A85A00089E
:100D8000110A00088D0A00088D0D0008B0B500AFEB
:100D9000964B1B68072B00D17EE0082B00D021E189
:100DA0000020FFF771FB0300012B2DD1904B1A6837
:100DB000904B9200D258904B1B68D2188E4B1A6001
:100DC0008D4B1A688D4B1A608B4B1B688C4A934273
:100DD00002DD894B00221A60874B1B68FA229100C2
:100DE0001800FFF71BFA03001C00814B1A68814BA7
:100DF0009200D358FA2291001800FFF70FFA03006F
:100E00001900200000F0DCFB0220FFF73DFB03008F
:100E1000012B00D0B8E0764B00221A60794B1B689A
:100E2000FA2291001800FFF7F9F903001C00704B3B
:100E30001A68704B9200D358FA2291001800FFF7FD
:100E4000EDF903001900200000F0BAFB6D4B1A68A1
:100E50006A4B1A60654B07221A6080235900902361
:100E6000DB050122180001F0B8FC674B01221021BC
:100E7000180001F0B2FC9023DB05002210211800BD
:100E800001F0ABFC604B00222021180001F0A5FC12
:100E9000574B00221A6077E00020FFF7F5FA0300B5
:100EA000012B25D1524B1A68524B9200D258554B08
:100EB0001B68D218534B1A60524B1A684F4B1A607A
:100EC000504B1B68FA2291001800FFF7A7F90300A6
:100ED0001C00474B1A68474B9200D358FA229100E6
:100EE0001800FFF79BF903001900200000F068FBD1
:100EF0000220FFF7C9FA0300012B47D1414B1A68C2
:100F00003D4B1B68D318414A934225DD3A4B1B6881
:100F1000002B21D19023DB0501221021180001F0C4
:100F20005CFC394B01222021180001F056FC802383
:100F300059009023DB050022180001F04EFC324BD3
:100F400000221021180001F048FC284B08221A60EA
:100F5000274B00221A6019E0254B00221A60234B10
:100F600000221A602A4B180000F0CEFE294B0A22FC
:100F70000A21180000F0DEFDFA239A002649274BCB
:100F8000180000F0D7FD2EE0C04600E0C04601206A
:100F9000FFF77AFA0300012B25D1154B1B685A1C69
:100FA000134B1A60124B1B68042B02DD104B0022FE
:100FB0001A60124B1B68FA2291001800FFF72EF9F5
:100FC00003001C000A4B1A680A4B9200D358FA22FD
:100FD00091001800FFF722F903001900200000F02B
:100FE000EFFA00E0C046BD46B0BDC046B0000020EC
:100FF000A80000200000002014000020AC00002009
:10100000D07E010018000020000400489F860100E7
:101010008D0D0008B9040008F20300008D0A0008D5
:1010200080B500AF9023DB051021180001F0F2FB22
:10103000104B2021180001F0EDFB0020FFF724FAEF
:101040000300012B12D10C4B0A220A21180000F0D8
:1010500071FD0A4B14220A21180000F06BFD084BA9
:10106000180000F051FE074B00221A60C046BD4632
:1010700080BDC04600040048B9040008B912000849
:1010800021100008B000002090B587B002AF020028
:10109000FB1D1A700F203B18FA1D12780F218A438E
:1010A0001A70FB1D1B781A010E243B191A703B188D
:1010B0001B780C221343DAB208217B181A703B18F4
:1010C0001B7808221343DAB27B185A703B191B783D
:1010D0000C221343DAB27B189A703B191B78082252
:1010E0001343DAB27B18DA707A1805486423009348
:1010F00004234E2101F050FCC046BD4605B090BD12
:10110000D000002090B587B002AF0200FB1D1A701E
:101110000F203B18FA1D12780F218A431A70FB1D0D
:101120001B781A010E243B191A703B181B780D22EC
:101130001343DAB208217B181A703B181B78092276
:101140001343DAB27B185A703B191B780D221343F4
:10115000DAB27B189A703B191B7809221343DAB272
:101160007B18DA707A1805486423009304234E2113
:1011700001F012FCC046BD4605B090BDD000002075
:1011800080B500AF3320FFF77FFF3220FFF77CFFF1
:10119000322001F01DF82820FFF776FF322001F001
:1011A00017F80120FFF770FF322001F011F8062038
:1011B000FFF76AFF322001F00BF80C20FFF764FF05
:1011C000322001F005F80220FFF75EFF322000F028
:1011D000FFFF8020FFF758FFC046BD4680BD80B5A9
:1011E00082B000AF786006E07B685A1C7A601B789A
:1011F0001800FFF787FF7B681B78002BF4D1C046EF
:10120000C046BD4602B080BD80B500AF0120FFF7EB
:101210003BFF052000F0DCFFC046BD4680BD80B529
:1012200084B000AF786039607B68012B0AD17B689D
:10123000DAB23B68DBB2D318DAB20F23FB187F3285
:101240001A700BE03B68DBB24033DBB25BB280224A
:10125000524213435AB20F23FB181A700F23FB1884
:101260001B781800FFF710FFC046BD4604B080BDD4
:1012700080B500AF9023DB0500220121180001F0AA
:10128000ACFA0B4B00220221180001F0A6FA094B20
:1012900000220821180001F0A0FA802319019023F0
:1012A000DB050022180001F098FAC046BD4680BD5B
:1012B000001400480004004880B500AFFFF7D8FFD5
:1012C000274B1B68032B2DD03ADC022B1ED037DCBA
:1012D000002B02D0012B0DD032E09023DB05012240
:1012E0000121180001F079FA1E4B1B68180000F06C
:1012F0003FF826E01C4B01220221180001F06DFA94
:10130000184B5B68180000F033F81AE0174B012205
:101310000821180001F061FA124B9B68180000F0D8
:1013200027F80EE0802319019023DB050122180025
:1013300001F053FA0B4BDB68180000F019F800E0DD
:10134000C046074B1B685A1C054B1A60044B1B68B0
:10135000032B02DD024B00221A60C046BD4680BD51
:10136000CC000020BC00002000140048000400480D
:1013700080B582B000AF78607B68092B00D913E19B
:101380007B689A008B4BD3181B689F468A4B0022C0
:101390000121180001F021FA9023DB0500224021F1
:1013A000180001F01AFA9023DB0500222021180012
:1013B00001F013FA814B00220221180001F00DFA0E
:1013C000F3E07D4B01220121180001F006FA902381
:1013D000DB0500224021180001F0FFF99023DB0516
:1013E00000222021180001F0F8F9744B002202219C
:1013F000180001F0F2F9D8E06F4B0022012118002B
:1014000001F0EBF99023DB0501224021180001F0E7
:10141000E4F99023DB0500222021180001F0DDF91A
:10142000664B00220221180001F0D7F9BDE0624BA3
:1014300001220121180001F0D0F99023DB050122DF
:101440004021180001F0C9F99023DB05002220217A
:10145000180001F0C2F9594B00220221180001F0D6
:10146000BCF9A2E0544B00220121180001F0B5F9AB
:101470009023DB0500224021180001F0AEF99023F3
:10148000DB0501222021180001F0A7F94B4B0022B7
:101490000221180001F0A1F987E0474B0122012148
:1014A000180001F09AF99023DB0500224021180072
:1014B00001F093F99023DB0501222021180001F0AF
:1014C0008CF93E4B00220221180001F086F96CE0F5
:1014D000394B00220121180001F07FF99023DB0530
:1014E00001224021180001F078F99023DB05012248
:1014F0002021180001F071F9304B00220221180060
:1015000001F06BF951E02C4B01220121180001F090
:1015100064F99023DB0501224021180001F05DF9F8
:101520009023DB0501222021180001F056F9234BFE
:1015300000220221180001F050F936E01E4B002273
:101540000121180001F049F99023DB050022402118
:10155000180001F042F99023DB0500222021180039
:1015600001F03BF9154B01220221180001F035F979
:101570001BE0114B01220121180001F02EF99023EC
:10158000DB0500224021180001F027F99023DB053C
:1015900000222021180001F020F9084B012202212D
:1015A000180001F01AF900E0C046C046BD4602B07E
:1015B00080BDC046D05A000800140048000400480E
:1015C00080B582B000AF786039607B680A2118006E
:1015D000FEF724FE03001A00104B1A607B680A21F4
:1015E0001800FEF701FF0B001A000C4B5A603B6815
:1015F0000A211800FEF712FE03001A00074B9A603A
:101600003B680A211800FEF7EFFE0B001A00034B9F
:10161000DA60C046BD4602B080BDC046BC000020B6
:1016200080B500AF802359019023DB05012218000B
:1016300001F0D3F89023DB0501221021180001F0FE
:10164000CCF8802359009023DB050122180001F01B
:10165000C4F89023DB0501220421180001F0BDF835
:10166000074B01222021180001F0B7F8044B01229A
:101670001021180001F0B1F8C046BD4680BDC0463B
:101680000004004880B500AF00F03EFD00F070F8A7
:1016900000F08CF900F006F900F0C4F800F056F9FB
:1016A000294B180002F0ECFA2849294B01221800B6
:1016B00002F0EEFEFFF764FD264B0A220A21180015
:1016C00000F038FA244B14220A21180000F032FAF4
:1016D000224B14220A21180000F02CFAFA239A0057
:1016E0001F4B0A21180000F025FA00F0CDFA1D4B1F
:1016F0001B78012BF9D1154B1B78312B07D11A4BD5
:1017000001221A60194B0121180001F083F80F4BD8
:101710001B78322B07D1144B01225A60134B012145
:10172000180001F077F8094B1B78332B07D10E4BCB
:1017300001229A600D4B0121180001F06BF8094B52
:1017400000221A70D1E7C04624010020F4010020D5
:101750006C010020B9040008F5030008B912000864
:101760008D0A0008F50100209400002000040048C4
:1017700090B595B000AF20243B19180030231A0013
:10178000002104F0AFF81023FB18180010231A00F2
:10179000002104F0A7F83B00180010231A000021D4
:1017A00004F0A0F821007B1802221A607B180122A5
:1017B000DA607B1810221A617B1800221A627B18EB
:1017C000180001F0E1FC031E01D000F0ADF910217A
:1017D0007B1807221A607B1800225A607B180022AF
:1017E0009A607B180022DA607B180021180001F053
:1017F000E5FF031E01D000F097F93B0021221A609B
:101800003B0000229A603B000022DA603B00180097
:1018100002F018F9031E01D000F086F9C046BD465B
:1018200015B090BD80B500AF1B4B1C4A1A601A4B17
:101830001B4A5A60184B00229A60174B0122DA604B
:10184000154B00221A61144B00225A61124B0022E0
:101850009A61114B0022DA610F4B00221A620E4B83
:10186000180000F0F3FF031E01D000F05DF90A4BF1
:101870000021180001F0F0FB031E01D000F054F924
:10188000054B0021180001F033FC031E01D000F0CD
:101890004BF9C046BD4680BDD0000020005400403A
:1018A0000E09002080B586B000AF0823FB18180091
:1018B00010231A00002104F015F83B00180008233B
:1018C0001A00002104F00EF81E4B8022D2051A6087
:1018D0001C4B1D4A5A601B4B00229A60194B09226F
:1018E000DA60184B00221A61164B00229A61154BE0
:1018F000180002F075F9031E01D000F015F9082157
:101900007B18802252011A607A180E4B11001800C1
:1019100002F0F0FA031E01D000F006F93B000022AD
:101920001A603B0000225A603A00064B1100180072
:1019300002F0F2FC031E01D000F0F6F8C046BD46EE
:1019400006B080BD240100203F1F000080B500AF1D
:10195000144B154A1A60134B962292015A60114B90
:1019600000229A600F4B0022DA600E4B00221A61AF
:101970000C4B0C225A610B4B00229A61094B00223E
:10198000DA61084B00221A62064B00225A62054BAC
:10199000180002F029FD031E01D000F0C5F8C04672
:1019A000BD4680BD6C0100200038014090B589B073
:1019B00000AF0C243B19180014231A00002103F077
:1019C00091FF444B5A69434B8021C9030A435A6132
:1019D000404B5A698023DB031340BB60BB683D4B1F
:1019E0005A693C4B802189020A435A61394B5A6932
:1019F00080239B0213407B607B68364B5A69354BD2
:101A00008021C9020A435A61324B5A698023DB02A2
:101A100013403B603B68304B00220321180000F06C
:101A2000DCFE2E499023DB050022180000F0D5FED5
:101A30002B4B00223B21180000F0CFFE3B19032264
:101A40001A603B1901225A603B1900229A603B1927
:101A50000022DA603B19204A1900100000F038FD1E
:101A60003B191E4A1A603B1901225A603B19002299
:101A70009A603B190022DA603A199023DB051100C5
:101A8000180000F025FD3B198A221A603B1900223C
:101A90005A603B1901229A603A199023DB05110024
:101AA000180000F015FD21007B183B221A607B18FE
:101AB00001225A607B1800229A607B180022DA60AB
:101AC0007B18074A1900100000F002FDC046BD4611
:101AD00009B090BD001002400014004875190000C4
:101AE0000004004880B582B000AF78600649074B1B
:101AF0000122180002F0CCFC054B01221A70C046EE
:101B0000BD4602B080BDC046F40100206C0100203B
:101B1000F501002080B582B000AF786000F0A2F837
:101B2000C046BD4602B080BD80B500AF72B6C046AB
:101B3000C046FDE780B586B000AFF860B9607A6056
:101B4000142003F009FE03003B613B69002B00D128
:101B500081E03B69FA681A60BB680A211800FEF749
:101B6000D3FA03001A003B695A607B680A21180007
:101B7000FEF7CAFA03001A003B699A603B6900222B
:101B8000DA603B6900221A61354B1B68002B06D1D5
:101B9000334B3A691A60324B3A695A6054E0304B21
:101BA0001B687B6109E03B695A687B695B68D21AF4
:101BB0003B695A607B69DB687B617B69002B05D0E0
:101BC0003B695A687B695B689A42ECD2244B1B687C
:101BD0007A699A4214D1224B1A683B69DA60204B29
:101BE0001B683A691A611E4B1B6859683B695A6841
:101BF0001B4B1B688A1A5A60194B3A691A6023E01A
:101C00007B69002B0BD1164B5A683B691A61144B48
:101C10005B683A69DA60124B3A695A6014E03B69D2
:101C20007A69DA607B691A693B691A617B691B69A9
:101C30003A69DA607B693A691A617B695A683B697B
:101C40005B68D21A7B695A60054B1B7A0133DAB2A2
:101C5000034B1A7200E0C046BD4606B080BDC046C8
:101C6000F801002080B500AF064B1B68002B05D0A3
:101C7000044B1B685A68013A5A6000E0C046BD46F2
:101C800080BDC046F801002080B582B000AF1D4B7A
:101C90001B68002B31D01B4B1B685B68002B2DD1C0
:101CA000184B1B681B689847164B1B687B60154BCD
:101CB0001B68DA68134B1A607B689B68002B11D095
:101CC0007B6818687B689A6813009B009B185B0010
:101CD00019007B689A6813009B009B185B001A0030
:101CE000FFF728FF7B68180003F040FD054B1B7AC7
:101CF000013BDAB2034B1A7200E0C046BD4602B0A7
:101D000080BDC046F801002080B584B000AF786087
:101D10003A4B1B7A002B01D100236AE0374B1B7A28
:101D2000012B12D1354B1B68BB60344B00225A602B
:101D3000324B5A68314B1A60304B00221A72BB6822
:101D4000180003F013FD012353E02C4B1B68FB60CC
:101D50004BE0FB681B687A689A4243D1274B1B68AB
:101D6000FA689A4211D1FB68DB6800221A61FB68AD
:101D7000DA68224B1A60214B1B685968FB685A6865
:101D80001E4B1B688A185A6020E01C4B5B68FA687F
:101D90009A4208D1FB681B690022DA60FB681A6965
:101DA000164B5A6012E0FB681B69FA68D268DA6069
:101DB000FB68DB68FA6812691A61FB68DB685968BE
:101DC000FB685A68FB68DB688A185A600B4B1B7A01
:101DD000013BDAB2094B1A72FB68180003F0C6FC2B
:101DE000012306E0FB68DB68FB60FB68002BB0D1D9
:101DF00000231800BD4604B080BDC046F801002095
:101E000080B582B000AF0F4B9A690E4B01210A4397
:101E10009A610C4B9B69012213407B607B68094BE4
:101E2000DA69084B802149050A43DA61054BDA6912
:101E300080235B0513403B603B68C046BD4602B053
:101E400080BDC0460010024090B58BB000AF7860F6
:101E500014243B19180014231A00002103F042FD3A
:101E60007B681B681D4A934233D11D4B5A691C4B3A
:101E7000802189020A435A61194B5A6980239B02C7
:101E800013403B613B693B19C022D2001A6021001C
:101E90007B1812225A607B1800229A607B1803225A
:101EA000DA607B1804221A617A189023DB0511008E
:101EB000180000F00DFB0A4BDA69094B80218903F9
:101EC0000A43DA61064BDA6980239B031340FB6007
:101ED000FB68C046BD460BB090BDC04600540040F4
:101EE0000010024080B584B000AF78607B681A684B
:101EF0008023DB059A4213D10B4BDA690A4B01218F
:101F00000A43DA61084BDB6901221340FB60FB687E
:101F1000002200210F2000F02BFA0F2000F03DFAE4
:101F2000C046BD4604B080BD0010024090B58BB0E5
:101F300000AF786014243B19180014231A00002104
:101F400003F0D0FC7B681B68204A934239D1204BB8
:101F50009A691F4B8021C9010A439A611C4B9A69F7
:101F60008023DB0113403B613B69194B5A69184BD5
:101F70008021C9020A435A61154B5A698023DB024A
:101F80001340FB60FB6821007B18C0221A607B189D
:101F900002225A607B1800229A607B180322DA60C2
:101FA0007B1800221A617B180A4A1900100000F001
:101FB0008FFA002201211B2000F0DAF91B2000F02B
:101FC000ECF9C046BD460BB090BDC046003801409C
:101FD000001002400004004880B500AFC046FDE795
:101FE00080B500AFC046FDE780B500AFC046BD4636
:101FF00080BD80B500AFC046BD4680BD80B500AF96
:1020000000F0CAF8C046BD4680BD000080B500AFF4
:10201000034B180001F080FEC046BD4680BDC0469F
:102020002401002080B500AF034B180002F088FAAD
:10203000C046BD4680BDC0466C01002080B586B05C
:1020400000AF7860144A154BD31A7B617B693B6102
:10205000134B1B68002B02D1114B124A1A60104B14
:102060001A687B68D3183A699A4207D203F054FC85
:1020700003000C221A6001235B4209E0084B1B6835
:10208000FB60074B1A687B68D218054B1A60FB6827
:102090001800BD4606B080BD0010002000040000FE
:1020A000040200205803002080B500AFC046BD46A2
:1020B00080BD00000D488546FFF7F6FF0C480D492E
:1020C0000D4A002302E0D458C4500433C4188C4293
:1020D000F9D30A4A0A4C002301E013600432A242F9
:1020E000FBD303F01FFCFFF7CDFAFEE70010002042
:1020F0000000002078000020385B000878000020F5
:1021000054030020FEE7000080B500AF074B1A68BB
:10211000064B10210A431A60002000F009F8FFF76F
:102120006FFE00231800BD4680BDC046002002405F
:1021300090B583B000AF7860144B1C68144B1B78CB
:102140001900FA239800FDF7DFFF030019002000B3
:10215000FDF7DAFF0300180000F02FF9031E01D08D
:1021600001230FE07B68032B0BD8796801235B42C6
:102170000022180000F0FCF8064B7A681A60002371
:1021800000E001231800BD4603B090BD1C000020F4
:10219000240000202000002080B500AF054B1B78F4
:1021A0001A00054B1B68D218034B1A60C046BD4687
:1021B00080BDC046240000200802002080B500AF8A
:1021C000024B1B681800BD4680BDC04608020020B7
:1021D00080B584B000AF7860FFF7F0FF0300BB600C
:1021E0007B68FB60FB68013305D00A4B1B781A0043
:1021F000FB689B18FB60C046FFF7E0FF0200BB686E
:10220000D31AFA689A42F7D8C046C046BD4604B011
:1022100080BDC0462400002080B582B000AF02001F
:10222000FB1D1A70FB1D1B787F2B09D8FB1D1B782B
:102230001A001F231A40044B012191400A001A6022
:10224000C046BD4602B080BD00E100E090B583B05D
:1022500000AF02003960FB1D1A70FB1D1B787F2B3D
:1022600028D82F4AFB1D1B785BB29B08C0339B000C
:102270009B58FA1D1278110003220A40D200FF2158
:1022800091400A00D2431A4011003B689B01FF2293
:102290001A40FB1D1B78180003230340DB009A4003
:1022A0001F48FB1D1B785BB29B080A43C0339B0091
:1022B0001A5031E01B4AFB1D1B7819000F230B40FD
:1022C000083B9B0806339B00D31804331B68FA1D98
:1022D0001278110003220A40D200FF2191400A0027
:1022E000D2431A4011003B689B01FF221A40FB1D9C
:1022F0001B78180003230340DB009A400948FB1DAC
:102300001B781C000F232340083B9B080A4306331D
:102310009B00C31804331A60C046BD4603B090BD8D
:1023200000E100E000ED00E080B582B000AF786031
:102330007B685A1E80235B049A4201D3012310E07C
:102340000A4B7A68013A5A6001235B420321180064
:10235000FFF77CFF054B00229A60044B07221A60AE
:1023600000231800BD4602B080BDC04610E000E06A
:1023700080B584B000AFB9607A600F217B18021C71
:102380001A70BA687B181B785BB211001800FFF74F
:102390005DFFC046BD4604B080BD80B582B000AFD1
:1023A0000200FB1D1A70FB1D1B785BB21800FFF7C3
:1023B00033FFC046BD4602B080BD80B582B000AFDD
:1023C00078607B681800FFF7AFFF03001800BD4678
:1023D00002B080BD80B582B000AF78607B682122FA
:1023E0009B5CDBB2022B08D07B6804229A637B687B
:1023F000202200219954012320E07B681B681A6881
:102400007B681B680E218A431A607B681B681A6808
:102410007B681B6801218A431A607B681A6C7B68A1
:10242000DB6B012191400A005A607B682122012167
:1024300099547B6820220021995400231800BD463E
:1024400002B080BD80B584B000AF78600F217B18EA
:1024500000221A707B6821229B5CDBB2022B06D023
:102460007B6804229A637B1801221A7028E07B683B
:102470001B681A687B681B680E218A431A607B6898
:102480001B681A687B681B6801218A431A607B6895
:102490001A6C7B68DB6B012191400A005A607B68F3
:1024A0002122012199547B682022002199547B68C4
:1024B0005B6B002B04D07B685B6B7A6810009847DD
:1024C0000F23FB181B781800BD4604B080BD000028
:1024D00080B586B000AF7860396000237B6149E148
:1024E0003B681B6801217A6991400A001340FB6038
:1024F000FB68002B00D13AE13B685B680322134084
:10250000012B05D03B685B6803221340022B30D1BE
:102510007B689B683B617B695B0003229A401300E8
:10252000DA433B6913403B613B68DA687B695B00D7
:102530009A4013003A6913433B617B683A699A6099
:102540007B685B683B6101227B699A401300DA4338
:102550003B6913403B613B685B681B0901221A40E1
:102560007B699A4013003A6913433B617B683A697F
:102570005A603B685B6803221340032B17D07B68CB
:10258000DB683B617B695B0003229A401300DA43FE
:102590003B6913403B613B689A687B695B009A40EA
:1025A00013003A6913433B617B683A69DA603B6820
:1025B0005B6803221340022B23D17B69DA087B6816
:1025C00008329200D3583B617B69072213409B007D
:1025D0000F229A401300DA433B6913403B613B688A
:1025E0001A697B6907210B409B009A4013003A69E6
:1025F00013433B617B69DA087B68083292003969D2
:10260000D1507B681B683B617B695B0003229A4069
:102610001300DA433B6913403B613B685B6803226C
:102620001A407B695B009A4013003A6913433B618F
:102630007B683A691A603B685A68C0239B02134062
:1026400000D194E0514B9A69504B01210A439A61A1
:102650004E4B9B6901221340BB60BB684C4A7B69AF
:102660009B0802339B009B583B617B69032213400C
:102670009B000F229A401300DA433B6913403B61F1
:102680007A689023DB059A420DD07B68414A9342D9
:1026900007D07B68404A934201D1022304E005231E
:1026A00002E0012300E000237A6903210A4092003E
:1026B00093403A6913433B6135497B699B08023378
:1026C0009B003A695A50354B9B683B61FB68DA4383
:1026D0003B6913403B613B685A6880235B031340AE
:1026E00003D03A69FB6813433B612C4B3A699A600B
:1026F0002A4BDB683B61FB68DA433B6913403B6173
:102700003B685A6880239B03134003D03A69FB68F7
:1027100013433B61214B3A69DA60204B5B683B61B4
:10272000FB68DA433B6913403B613B685A6880238E
:102730009B02134003D03A69FB6813433B61174B7C
:102740003A695A60154B1B683B61FB68DA433B6989
:1027500013403B613B685A6880235B02134003D0FF
:102760003A69FB6813433B610C4B3A691A607B6919
:1027700001337B613B681A687B69DA40131E00D025
:10278000AEE6C046C046BD4606B080BD0010024061
:102790000000014000040048000800480004014017
:1027A00080B584B000AF78600A00BB1C1A807B68DB
:1027B0001B69BA1C1288134004D00F23FB18012296
:1027C0001A7003E00F23FB1800221A700F23FB1866
:1027D0001B781800BD4604B080BD80B582B000AF44
:1027E000786008001100BB1C021C1A807B1C0A1CAC
:1027F0001A707B1C1B78002B04D0BB1C1A887B68CA
:102800009A6103E0BB1C1A887B689A62C046BD4689
:1028100002B080BD80B584B000AF78600A00BB1CF8
:102820001A807B685B69FB60BB1C1B88FA681340DD
:102830001A04FB68DB43B91C09880B401A437B6808
:102840009A61C046BD4604B080BD000080B582B02C
:1028500000AF78607B68002B01D101238FE07B689B
:1028600041229B5CDBB2002B07D17B684022002118
:1028700099547B681800FFF7E7FA7B68412224210E
:1028800099547B681B681A687B681B6801218A431E
:102890001A607B685A687B681B683B490A401A616A
:1028A0007B681B689A687B681B6838490A409A6095
:1028B0007B68DB68012B08D17B689A687B681B68A2
:1028C000802109020A439A6007E07B689A687B6866
:1028D0001B68842109020A439A607B68DB68022B2B
:1028E00009D17B681B685A687B681B6880210901D5
:1028F0000A435A6007E07B681B685A687B681B685C
:1029000023490A405A607B681B685A687B681B68C9
:1029100020490A435A607B681B68DA687B681B6839
:102920001A490A40DA607B681A697B685B691A4356
:1029300011007B689B691A027B681B680A43DA6096
:102940007B68D9697B681A6A7B681B680A431A60CE
:102950007B681B681A687B681B6801210A431A6040
:102960007B6800225A647B684122202199547B684D
:1029700000221A637B684222002199540023180028
:10298000BD4602B080BDC046FFFFFFF0FF7FFFFFE6
:10299000FFF7FFFF0080000290B589B002AFF8603A
:1029A00008007A6019000A23FB18021C1A80082309
:1029B000FB180A1C1A80FB6841229B5CDBB2202BAF
:1029C00000D00AE1FB6840229B5C012B01D102236D
:1029D00004E1FB68402201219954FFF7EFFB03005B
:1029E0003B6180231902F8683B6900931923012297
:1029F00000F01EF9031E01D00123EFE0FB68412225
:102A000021219954FB68422210219954FB6800222D
:102A10005A64FB687A685A62FB680822BA181288FE
:102A20005A85FB6800225A63FB685B8D9BB2FF2BC3
:102A300006D9FB68FF221A8580235B047B6107E0CF
:102A4000FB685B8D9AB2FB681A8580239B047B61CF
:102A5000FB681B8D002B27D0FB685B6A1A78FB682C
:102A60001B689A62FB685B6A5A1CFB685A62FB68C7
:102A70005B8D9BB2013B9AB2FB685A85FB681B8D4C
:102A8000013B9AB2FB681A85FB681B8DDBB20133F0
:102A9000DAB27C690A23FB181988F868514B009355
:102AA000230000F09FFA6FE0FB681B8DDAB27C69AF
:102AB0000A23FB181988F8684A4B0093230000F09A
:102AC00091FA61E03A69B96AFB68180000F008F908
:102AD000031E01D0012381E0FB685B6A1A78FB6862
:102AE0001B689A62FB685B6A5A1CFB685A62FB6847
:102AF0005B8D9BB2013B9AB2FB685A85FB681B8DCC
:102B0000013B9AB2FB681A85FB685B8D9BB2002B78
:102B10003AD0FB681B8D002B36D1BA6AF8683B6946
:102B2000009313000022802100F082F8031E01D0E0
:102B3000012353E0FB685B8D9BB2FF2B11D9FB682F
:102B4000FF221A85FB681B8DDAB280235C040A23FE
:102B5000FB181988F86800230093230000F042FA5C
:102B600012E0FB685B8D9AB2FB681A85FB681B8DCF
:102B7000DAB280239C040A23FB181988F868002322
:102B80000093230000F02EFAFB685B8D9BB2002BB4
:102B900098D13A69B96AFB68180000F0E7F8031E9B
:102BA00001D001231AE0FB681B682022DA61FB6870
:102BB0001B685A68FB681B680B490A405A60FB682F
:102BC000412220219954FB68422200219954FB683C
:102BD000402200219954002300E002231800BD4642
:102BE00007B090BD0020008000E800FE80B582B0F4
:102BF00000AF78607B681B689B6902221340022B40
:102C000003D17B681B6800229A627B681B689B6902
:102C100001221340012B07D07B681B689A697B68EF
:102C20001B6801210A439A61C046BD4602B080BDBF
:102C300080B584B000AFF860B9603B60FB1D1A70CE
:102C40003AE0BA693968FB68180000F0D3F8031E4F
:102C500001D0012340E03B6801332DD0FFF7AEFAED
:102C60000200BB69D31A3A689A4202D33B68002B30
:102C700022D1FB681B689B69BA681340BA68D31AF3
:102C80005A425341DBB21A00FB1D1B789A4213D102
:102C9000FB685B6C20221A43FB685A64FB68412284
:102CA00020219954FB68422200219954FB6840225C
:102CB0000021995401230FE0FB681B689B69BA68E7
:102CC0001340BA68D31A5A425341DBB21A00FB1DB3
:102CD0001B789A42B5D000231800BD4604B080BDD1
:102CE00080B584B000AFF860B9607A6032E07A688D
:102CF000B968FB68180000F07DF8031E01D00123BD
:102D000030E0BB68013325D0FFF758FA02007B683A
:102D1000D31ABA689A4202D3BB68002B1AD1FB6857
:102D20001B689B6902221340022B13D0FB685B6C6B
:102D300020221A43FB685A64FB68412220219954DF
:102D4000FB68422200219954FB68402200219954DB
:102D5000012307E0FB681B689B6902221340022BDA
:102D6000C5D100231800BD4604B080BD80B584B035
:102D700000AFF860B9607A602FE07A68B968FB68E4
:102D8000180000F037F8031E01D001232DE0FFF7F3
:102D900015FA02007B68D31ABA689A4202D3BB685C
:102DA000002B1AD1FB681B689B6920221340202B43
:102DB00013D0FB685B6C20221A43FB685A64FB68E3
:102DC000412220219954FB68422200219954FB683A
:102DD000402200219954012307E0FB681B689B698E
:102DE00020221340202BC8D100231800BD4604B078
:102DF00080BD000080B58AB000AFF860B9607A602D
:102E00002723FB1800221A70FB681B689B69BB61B3
:102E100000233B627B68FB61BB691022134000D139
:102E200079E0FB681B681022DA6157E02722BB18A3
:102E3000BA1812781A70BB6801334FD0FFF7BEF989
:102E40000200FB69D31ABA689A4202D3BB68002B0E
:102E500044D1FB681B685A688023DB0113407B6107
:102E600013203B18FA684221525C1A70FB681B68F9
:102E70009A6980231B021A4080231B029A4226D1A2
:102E80007A698023DB019A4221D03B181B78202BE2
:102E90001DD0FB681B685A68FB681B688021C9014C
:102EA0000A435A60FFF78AF90300FB610FE0FFF75E
:102EB00085F90200FB69D31A192B08D93B6A202235
:102EC00013433B622723FB1801221A7006E0FB68BC
:102ED0001B689B6920221340202BE8D1FB681B68EC
:102EE0009B6920221340202B04D02723FB181B783A
:102EF000002B9BD02723FB181B78002B03D1FB68EA
:102F00001B682022DA613B6A042213433B622723B9
:102F1000FB1801221A70FB681B689B69BB61BA69C8
:102F200080235B0013400CD03B6A012213433B62B9
:102F3000FB681B6880225200DA612723FB180122FC
:102F40001A70BA698023DB0013400CD03B6A082258
:102F500013433B62FB681B688022D200DA6127239F
:102F6000FB1801221A70BA6980239B0013400CD011
:102F70003B6A022213433B62FB681B68802292007B
:102F8000DA612723FB1801221A702723FB181B780C
:102F9000002B1DD0FB681800FFF728FEFB681B689C
:102FA0005A68FB681B680E490A405A60FB685A6CF5
:102FB0003B6A1A43FB685A64FB68412220219954FA
:102FC000FB68422200219954FB6840220021995459
:102FD0002723FB181B781800BD460AB080BDC046E9
:102FE00000E800FE90B587B000AFF860080011005F
:102FF0007B600A243B19021C1A8009203B180A1C1A
:103000001A703B191B889B059A0D3B181B781904F5
:10301000FF231B040B401A437B681A43BB6A13430C
:103020005B005B087B61FB681B685B68BA6A510DDB
:103030008022D2000A4007490A43D2431A401100B5
:10304000FB681B687A690A435A60C046BD4607B0F0
:1030500090BDC046FF63FF0380B582B000AF7860CB
:1030600039607B6841229B5CDBB2202B38D17B68C6
:1030700040229B5C012B01D1022332E07B6840227D
:10308000012199547B684122242199547B681B6853
:103090001A687B681B6801218A431A607B681B6879
:1030A0001A687B681B6811490A401A607B681B68B4
:1030B00019687B681B683A680A431A607B681B685A
:1030C0001A687B681B6801210A431A607B684122E9
:1030D000202199547B68402200219954002300E06C
:1030E00002231800BD4602B080BDC046FFEFFFFFBF
:1030F00080B584B000AF786039607B6841229B5C0A
:10310000DBB2202B39D17B6840229B5C012B01D1A3
:10311000022333E07B684022012199547B684122DD
:10312000242199547B681B681A687B681B680121FD
:103130008A431A607B681B681B68FB60FB68114A46
:103140001340FB603B681B02FA681343FB607B681B
:103150001B68FA681A607B681B681A687B681B68C2
:1031600001210A431A607B684122202199547B681F
:10317000402200219954002300E002231800BD469C
:1031800004B080BDFFF0FFFF80B588B000AF78606D
:103190007B68002B01D1012301E37B681B680122BE
:1031A000134000D18DE0C34B5B680C221340042B0D
:1031B0000ED0C04B5B680C221340082B16D1BD4BC0
:1031C0005A6880235B021A4080235B029A420DD129
:1031D000B84B1A6880239B02134000D170E07B68D3
:1031E0005B68002B00D06BE00123D8E27B685B6852
:1031F000012B07D1AF4B1A68AE4B802149020A431D
:103200001A602FE07B685B68002B0CD1A94B1A6811
:10321000A84BA9490A401A60A64B1A68A54BA749B2
:103220000A401A601EE07B685B68052B0ED1A14B3B
:103230001A68A04B8021C9020A431A609D4B1A6884
:103240009C4B802149020A431A600BE0994B1A6893
:10325000984B99490A401A60964B1A68954B9749C2
:103260000A401A607B685B68002B14D0FEF7A6FF4B
:103270000300BB6108E0FEF7A1FF0200BB69D31A9F
:10328000642B01D903238AE28A4B1A6880239B02AC
:103290001340F0D015E0FEF791FF0300BB6108E09A
:1032A000FEF78CFF0200BB69D31A642B01D90323FC
:1032B00075E2804B1A6880239B021340F0D100E036
:1032C000C0467B681B680222134000D169E0794B3D
:1032D0005B680C2213400BD0764B5B680C221340CA
:1032E000082B1CD1734B5A6880235B02134016D104
:1032F000704B1B680222134005D07B68DB68012BF2
:1033000001D001234BE26B4B1B68F8229343190059
:103310007B681B69DA00674B0A431A6041E07B68EF
:10332000DB68002B24D0634B1A68624B01210A43EF
:103330001A60FEF743FF0300BB6108E0FEF73EFFA3
:103340000200BB69D31A022B01D9032327E2594B90
:103350001B6802221340F1D0564B1B68F82293439E
:1033600019007B681B69DA00524B0A431A6018E0A7
:10337000504B1A684F4B01218A431A60FEF71EFF1B
:103380000300BB6108E0FEF719FF0200BB69D31A16
:10339000022B01D9032302E2464B1B680222134091
:1033A000F1D17B681B680822134036D07B68DB694B
:1033B000002B19D03F4B5A6A3E4B01210A435A62F7
:1033C000FEF7FCFE0300BB6108E0FEF7F7FE02001B
:1033D000BB69D31A022B01D90323E0E1354B5B6AA9
:1033E00002221340F1D018E0324B5A6A314B0121CE
:1033F0008A435A62FEF7E2FE0300BB6108E0FEF773
:10340000DDFE0200BB69D31A022B01D90323C6E1FA
:10341000284B5B6A02221340F1D17B681B680422AF
:10342000134000D1B4E01F203B1800221A70214B3A
:10343000DA6980235B05134010D11E4BDA691D4BFE
:10344000802149050A43DA611A4BDA6980235B055A
:103450001340FB60FB683B1801221A70184B1A6876
:1034600080235B0013401AD1154B1A68144B80213E
:1034700049000A431A60FEF7A1FE0300BB6108E0A1
:10348000FEF79CFE0200BB69D31A642B01D903230B
:1034900085E10B4B1A6880235B001340F0D07B68FA
:1034A0009B68012B0ED1034B1A6A024B01210A4380
:1034B0001A6235E000100240FFFFFEFFFFFFFBFF36
:1034C000007000407B689B68002B0CD1B64B1A6AD9
:1034D000B54B01218A431A62B34B1A6AB24B0421DD
:1034E0008A431A621CE07B689B68052B0CD1AE4BAB
:1034F0001A6AAD4B04210A431A62AB4B1A6AAA4BF3
:1035000001210A431A620BE0A74B1A6AA64B01215C
:103510008A431A62A44B1A6AA34B04218A431A6293
:103520007B689B68002B14D0FEF748FE0300BB614C
:1035300009E0FEF743FE0200BB69D31A9B4A93429F
:1035400001D903232BE1984B1B6A02221340F0D0D0
:1035500013E0FEF733FE0300BB6109E0FEF72EFE29
:103560000200BB69D31A914A934201D9032316E1A1
:103570008D4B1B6A02221340F0D11F23FB181B78CE
:10358000012B05D1884BDA69874B89490A40DA61FA
:103590007B681B681022134063D07B685B69012B3A
:1035A0002AD1814B5A6B804B04210A435A637E4BCC
:1035B0005A6B7D4B01210A435A63FEF7FFFD03005E
:1035C000BB6108E0FEF7FAFD0200BB69D31A022BCB
:1035D00001D90323E3E0744B5B6B02221340F1D06B
:1035E000714B5B6BF822934319007B689B69DA008F
:1035F0006D4B0A435A6334E07B685B69053311D134
:10360000694B5A6B684B04218A435A63664B5B6B68
:10361000F822934319007B689B69DA00624B0A43E6
:103620005A631EE0604B5A6B5F4B04210A435A6396
:103630005D4B5A6B5C4B01218A435A63FEF7BEFD1A
:103640000300BB6108E0FEF7B9FD0200BB69D31AB5
:10365000022B01D90323A2E0534B5B6B02221340E0
:10366000F1D17B681B6A002B00D197E04E4B5B6861
:103670000C221340082B00D16BE07B681B6A022BE5
:103680004CD1494B1A68484B4A490A401A60FEF728
:1036900095FD0300BB6108E0FEF790FD0200BB69E9
:1036A000D31A022B01D9032379E03F4B1A688023F8
:1036B0009B041340F0D13C4BDB6A0F22934319006B
:1036C0007B68DA6A384B0A43DA62374B5B683A4AFE
:1036D000134019007B689A6A7B685B6A1A43324B15
:1036E0000A435A60304B1A682F4B802149040A4321
:1036F0001A60FEF763FD0300BB6108E0FEF75EFDA4
:103700000200BB69D31A022B01D9032347E0264BE1
:103710001A6880239B041340F0D03FE0224B1A68C4
:10372000214B24490A401A60FEF748FD0300BB61A3
:1037300008E0FEF743FD0200BB69D31A022B01D952
:1037400003232CE0184B1A6880239B041340F0D10C
:1037500024E07B681B6A012B01D101231FE0124B7F
:103760005B687B61104BDB6A3B617A6980235B029B
:103770001A407B685B6A9A420ED13B690F221A405D
:103780007B68DB6A9A4207D17A69F0239B031A406F
:103790007B689B6A9A4201D0012300E00023180055
:1037A000BD4608B080BDC04600100240881300002E
:1037B000FFFFFFEFFFFFFFFEFFFFC2FF80B584B0FA
:1037C00000AF786039607B68002B01D10123B3E042
:1037D0005B4B1B68012213403A689A4211D9584B3F
:1037E0001B68012293431900554B3A680A431A603B
:1037F000534B1B68012213403A689A4201D00123BF
:103800009AE07B681B680222134015D07B681B6816
:103810000422134006D04B4B5A684A4BE021C900A2
:103820000A435A60474B5B68F022934319007B6858
:103830009A68444B0A435A607B681B680122134014
:1038400040D07B685B68012B07D13E4B1A68802310
:103850009B02134014D101236EE07B685B68022B4E
:1038600007D1384B1A6880239B04134008D10123E9
:1038700062E0344B1B680222134001D101235BE05C
:10388000304B5B680322934319007B685A682D4BC9
:103890000A435A60FEF792FC0300FB6009E0FEF762
:1038A0008DFC0200FB68D31A274A934201D90323F7
:1038B00042E0244B5B680C221A407B685B689B00EB
:1038C0009A42ECD11E4B1B68012213403A689A427F
:1038D00011D21B4B1B68012293431900184B3A6805
:1038E0000A431A60164B1B68012213403A689A4239
:1038F00001D0012320E07B681B680422134009D01B
:10390000104B5B68114A134019007B68DA680D4B55
:103910000A435A6000F020F801000A4B5B681B095B
:103920000F2213400A4AD35C0A00DA40094B1A609E
:103930000020FEF7FDFB00231800BD4604B080BD4B
:10394000002002400010024088130000FFF8FFFF33
:10395000F85A00081C00002080B586B000AF002394
:10396000FB600023BB6000237B6100237B6000239E
:103970003B61204B5B68FB60FB680C221340042B0F
:1039800002D0082B03D02CE01B4B3B612CE0FB68E2
:103990009B0C0F221340194AD35C7B60154BDB6AEA
:1039A0000F221340164AD35CBB60FA6880235B0287
:1039B000134009D0B9681048FCF7A6FB03001A00B1
:1039C0007B6853437B6109E079680A005201521A0F
:1039D00093019B1ADB005B181B027B617B693B61D7
:1039E00002E0054B3B61C0463B691800BD4606B08E
:1039F00080BDC0460010024000127A00105B000833
:103A0000205B000880B500AF024B1B681800BD4664
:103A100080BDC0461C00002080B500AFFFF7F2FF5C
:103A20000100064B5B681B0A07221340044AD35C63
:103A3000D9400B001800BD4680BDC04600100240B2
:103A4000085B000880B586B000AF786000233B615A
:103A50000023FB607B681A6880235B02134000D15F
:103A60008EE017203B1800221A70574BDA6980232A
:103A70005B05134010D1544BDA69534B8021490543
:103A80000A43DA61504BDA6980235B051340BB605F
:103A9000BB683B1801221A704C4B1A6880235B00EC
:103AA00013401AD1494B1A68484B802149000A43F8
:103AB0001A60FEF783FB03003B6108E0FEF77EFB24
:103AC00002003B69D31A642B01D9032377E03F4BF3
:103AD0001A6880235B001340F0D03B4B1A6AC02366
:103AE0009B001340FB60FB68002B34D07B685A6856
:103AF000C0239B001340FA689A422CD0324B1B6AB9
:103B0000334A1340FB60304B1A6A2F4B8021490225
:103B10000A431A622C4B1A6A2B4B2E490A401A622E
:103B2000294BFA681A62FB680122134013D0FEF792
:103B300045FB03003B6109E0FEF740FB02003B69E7
:103B4000D31A254A934201D9032338E01E4B1B6A3E
:103B500002221340F0D01C4B1B6A1D4A134019006F
:103B60007B685A68184B0A431A621723FB181B78A4
:103B7000012B05D1144BDA69134B18490A40DA615D
:103B80007B681B680122134009D00F4B1B6B03227B
:103B9000934319007B689A680B4B0A431A637B684E
:103BA0001B682022134009D0074B1B6B1022934344
:103BB00019007B68DA68044B0A431A630023180073
:103BC000BD4606B080BDC0460010024000700040F7
:103BD000FFFCFFFFFFFFFEFF88130000FFFFFFEF6A
:103BE00080B582B000AF78607B68002B01D10123E3
:103BF00042E07B683D229B5CDBB2002B07D17B68F7
:103C00003C22002199547B681800FEF76BF97B6811
:103C10003D22022199547B681A687B68043319009D
:103C2000100000F05BFA7B684622012199547B6802
:103C30003E22012199547B683F22012199547B68DF
:103C40004022012199547B684122012199547B68CB
:103C50004222012199547B684322012199547B68B7
:103C60004422012199547B684522012199547B68A3
:103C70003D220121995400231800BD4602B080BDA9
:103C800080B584B000AF78607B683D229B5CDBB27E
:103C9000012B01D0012336E07B683D22022199549B
:103CA0007B681B68DA687B681B6801210A43DA605D
:103CB0007B681B68164A93420AD07B681A68802387
:103CC000DB059A4204D07B681B68124A934211D1EB
:103CD0007B681B689B6807221340FB60FB68062B10
:103CE00010D07B681B681A687B681B6801210A4337
:103CF0001A6007E07B681B681A687B681B680121F3
:103D00000A431A6000231800BD4604B080BDC046B7
:103D1000002C01400004004080B584B000AF786002
:103D20007B681B68DB68FB607B681B681B69BB608A
:103D3000BB680222134021D0FB68022213401DD031
:103D40007B681B68032252421A617B6801221A7742
:103D50007B681B689B690322134004D07B681800B2
:103D600000F0A4F907E07B68180000F097F97B6881
:103D7000180000F0A3F97B6800221A77BB680422C0
:103D8000134022D0FB68042213401ED07B681B68BE
:103D9000052252421A617B6802221A777B681B68EF
:103DA0009A69C0239B00134004D07B68180000F080
:103DB0007DF907E07B68180000F070F97B68180057
:103DC00000F07CF97B6800221A77BB680822134058
:103DD00021D0FB68082213401DD07B681B68092294
:103DE00052421A617B6804221A777B681B68DB6980
:103DF0000322134004D07B68180000F057F907E055
:103E00007B68180000F04AF97B68180000F056F94A
:103E10007B6800221A77BB681022134022D0FB680F
:103E2000102213401ED07B681B68112252421A6177
:103E30007B6808221A777B681B68DA69C0239B00BD
:103E4000134004D07B68180000F030F907E07B686D
:103E5000180000F023F97B68180000F02FF97B6848
:103E600000221A77BB68012213400CD0FB680122A4
:103E7000134008D07B681B68022252421A617B689B
:103E80001800FDF747FEBB68802213400CD0FB688A
:103E90008022134008D07B681B68812252421A613D
:103EA0007B68180000F098FABB68402213400CD0E1
:103EB000FB684022134008D07B681B6841225242B5
:103EC0001A617B68180000F001F9BB6820221340DA
:103ED0000CD0FB682022134008D07B681B6821228D
:103EE00052421A617B68180000F06EFAC046BD4667
:103EF00004B080BD80B584B000AF786039600F2316
:103F0000FB1800221A707B683C229B5C012B01D1BC
:103F10000223BCE07B683C22012199547B683D224E
:103F2000022199547B681B689B68BB60BB68772241
:103F30009343BB60BB68584A1340BB607B681B68F7
:103F4000BA689A603B681B6880229201934240D015
:103F500080229201934200D988E08022520193424C
:103F600000D188E080225201934200D97EE0702B7C
:103F700018D000D97AE0602B4FD000D976E0502BD2
:103F80003BD000D972E0402B57D000D96EE0302BE7
:103F900063D06BD8202B60D068D8002B5DD0102B5D
:103FA0005BD063E07B6818683B6899683B685A6837
:103FB0003B68DB6800F090F97B681B689B68BB601E
:103FC000BB6877221343BB607B681B68BA689A6042
:103FD00052E07B6818683B6899683B685A683B68A0
:103FE000DB6800F079F97B681B689A687B681B685E
:103FF0008021C9010A439A603EE07B6818683B68EB
:1040000059683B68DB681A0000F0ECF87B681B68B5
:104010005021180000F046F92EE07B6818683B68D4
:1040200059683B68DB681A0000F00AF97B681B6876
:104030006021180000F036F91EE07B6818683B68C4
:1040400059683B68DB681A0000F0CCF87B681B6895
:104050004021180000F026F90EE07B681A683B68E2
:104060001B681900100000F01DF905E00F23FB1874
:1040700001221A7000E0C0467B683D22012199545C
:104080007B683C22002199540F23FB181B781800F1
:10409000BD4604B080BDC046FF00FFFF80B582B0C2
:1040A00000AF7860C046BD4602B080BD80B582B02A
:1040B00000AF7860C046BD4602B080BD80B582B01A
:1040C00000AF7860C046BD4602B080BD80B582B00A
:1040D00000AF7860C046BD4602B080BD80B584B0F8
:1040E00000AF786039607B681B68FB607B68374A8B
:1040F000934208D07A688023DB059A4203D07B681C
:10410000334A934208D1FB6870229343FB603B68BB
:104110005B68FA681343FB607B682C4A934214D0B7
:104120007A688023DB059A420FD07B68284A934245
:104130000BD07B68274A934207D07B68264A93427C
:1041400003D07B68254A934208D1FB68244A134078
:10415000FB603B68DB68FA681343FB60FB68802206
:1041600093431A003B685B691343FB607B68FA6802
:104170001A603B689A687B68DA623B681A687B68F9
:104180009A627B68114A934207D07B68124A934235
:1041900003D07B68114A934203D13B681A697B685C
:1041A0001A637B6801225A617B681B6901221340F4
:1041B000012B06D17B681B69012293431A007B689F
:1041C0001A61C046BD4604B080BDC046002C014007
:1041D000000400400020004000440140004801402D
:1041E000FFFCFFFF80B586B000AFF860B9607A6071
:1041F000FB681B6A7B61FB681B6A012293431A0000
:10420000FB681A62FB689B693B613B69F022934340
:104210003B617B681B013A6913433B617B690A225E
:1042200093437B617A69BB6813437B61FB683A699E
:104230009A61FB687A691A62C046BD4606B080BDC5
:1042400080B586B000AFF860B9607A60FB681B6A21
:104250007B61FB681B6A102293431A00FB681A6299
:10426000FB689B693B613B690D4A13403B617B687E
:104270001B033A6913433B617B69A02293437B6133
:10428000BB681B017A6913437B61FB683A699A61D9
:10429000FB687A691A62C046BD4606B080BDC0465A
:1042A000FF0FFFFF80B584B000AF786039607B6896
:1042B0009B68FB60FB6870229343FB603A68FB6875
:1042C000134307221343FB607B68FA689A60C04679
:1042D000BD4604B080BD000080B586B000AFF86078
:1042E000B9607A603B60FB689B687B617B69094AC7
:1042F00013407B613B681A027B681A43BB68134317
:104300007A6913437B61FB687A699A60C046BD464F
:1043100006B080BDFF00FFFF80B584B000AF7860BD
:1043200039607B683C229B5C012B01D1022342E077
:104330007B683C22012199547B683D2202219954DB
:104340007B681B685B68FB607B681B689B68BB6065
:10435000FB6870229343FB603B681B68FA68134359
:10436000FB607B681B68FA685A607B681B68144AAC
:1043700093420AD07B681A688023DB059A4204D0F6
:104380007B681B680F4A93420CD1BB688022934321
:10439000BB603B685B68BA681343BB607B681B68A3
:1043A000BA689A607B683D22012199547B683C225F
:1043B0000021995400231800BD4604B080BDC046BA
:1043C000002C01400004004080B582B000AF78604E
:1043D000C046BD4602B080BD80B582B000AF7860F7
:1043E000C046BD4602B080BD80B582B000AF7860E7
:1043F0007B68002B01D1012344E07B68DB6F002B3D
:1044000007D17B687822002199547B681800FDF75A
:104410008DFD7B682422DA677B681B681A687B68DD
:104420001B6801218A431A607B685B6A002B03D0FA
:104430007B68180000F0A8FC7B68180000F07CFB8B
:104440000300012B01D101231CE07B681B685A6823
:104450007B681B680D490A405A607B681B689A6834
:104460007B681B682A218A439A607B681B681A68EC
:104470007B681B6801210A431A607B68180000F002
:1044800037FD03001800BD4602B080BDFFB7FFFF37
:1044900080B588B000AFF860B960BB1D1A80FB68BA
:1044A00080229B58202B45D1BB68002B03D0BB1D1D
:1044B0001B88002B01D101233DE0FB689A68802313
:1044C0005B019A4209D1FB681B69002B05D1BB68CF
:1044D0000122134001D001232DE0FB6800221A665F
:1044E000FB681B685A6880231B04134019D0EFF344
:1044F00010833B613B69FB6101237B617B6983F333
:104500001088C046FB681B681A68FB681B6880211E
:10451000C9040A431A60FB69BB61BB6983F3108855
:10452000C046BB1D1A88B968FB68180000F0F8FD8A
:10453000030000E002231800BD4608B080BD000063
:1045400090B5ABB000AF78607B681B68DB69A422D4
:10455000B9180B607B681B681B68A02039180B60BA
:104560007B681B689B689C2179180B601100BB1845
:104570001B68994A13409822BC182360BB181B681B
:10458000002B14D17B181B68202213400FD03B183E
:104590001B68202213400AD07B689B6E002B00D141
:1045A0009EE27B689B6E7A681000984798E2982399
:1045B000FB181B68002B00D114E19C23FB181B681F
:1045C0000122134006D1A023FB181B68834A134025
:1045D00000D107E1A423FB181B680122134012D06D
:1045E000A023FB181A6880235B0013400BD07B6864
:1045F0001B6801221A627B6884229B5801221A439D
:104600007B6884215A50A423FB181B6802221340A4
:1046100011D09C23FB181B68012213400BD07B6830
:104620001B6802221A627B6884229B5804221A4368
:104630007B6884215A50A423FB181B680422134072
:1046400011D09C23FB181B68012213400BD07B6800
:104650001B6804221A627B6884229B5802221A4338
:104660007B6884215A50A423FB181B68082213403E
:1046700017D0A023FB181B682022134005D19C23D0
:10468000FB181B68012213400BD07B681B680822B3
:104690001A627B6884229B5808221A437B68842113
:1046A0005A50A423FB181A6880231B01134013D00F
:1046B000A023FB181A688023DB0413400CD07B680E
:1046C0001B68802212011A627B6884229B58202278
:1046D0001A437B6884215A507B6884229B58002BA4
:1046E00000D1FFE1A423FB181B68202213400ED049
:1046F000A023FB181B682022134008D07B689B6E08
:10470000002B04D07B689B6E7A68100098477B680A
:1047100084229B5894217A1813607B681B689B68DD
:1047200040221340402B04D07B181B6828221340E2
:1047300047D07B68180000F0A9FD7B681B689B6868
:1047400040221340402B37D1EFF310833B663B6E82
:1047500090203A18136001237B667B6E83F31088E8
:10476000C0467B681B689A687B681B6840218A4347
:104770009A603B181B68BB66BB6E83F31088C0460B
:104780007B685B6F002B12D07B685B6F144A5A63A7
:104790007B685B6F1800FDF755FE031E1AD07B681F
:1047A0005B6F5A6B7B685B6F1800904712E07B6809
:1047B000180000F0ADF90DE07B68180000F0A8F9D2
:1047C00008E07B68180000F0A3F97B6884220021D0
:1047D000995087E1C04685E10F08000020010004E0
:1047E000555300087B681B6E012B00D039E1A423D0
:1047F000FB181B681022134000D132E1A023FB18E4
:104800001B681022134000D12BE17B681B6810222B
:104810001A627B681B689B6840221340402B00D0C3
:104820009FE07B685B6F1B685A687E217B181A804B
:104830007B181B88002B00D156E17B6858229B5ABD
:104840007A1812889A4200D34EE17B687A185A216E
:1048500012885A527B685B6F9B69202B6FD0EFF3F5
:1048600010833B633B6BBB6701237B637B6B83F3F1
:104870001088C0467B681B681A687B681B689E4965
:104880000A401A60BB6FBB63BB6B83F31088C046E2
:10489000EFF31083FB63FB6B7B6701233B643B6C93
:1048A00083F31088C0467B681B689A687B681B6826
:1048B00001218A439A607B6F7B647B6C83F3108851
:1048C000C046EFF31083BB64BB6C3B670123FB6402
:1048D000FB6C83F31088C0467B681B689A687B6812
:1048E0001B6840218A439A603B6F3B653B6D83F3B5
:1048F0001088C0467B688022202199507B68002266
:104900001A66EFF310837B657B6DFB660123BB6545
:10491000BB6D83F31088C0467B681B681A687B6890
:104920001B6810218A431A60FB6EFB65FB6D83F3E5
:104930001088C0467B685B6F1800FDF74BFD7B68F5
:1049400002225A667B6858229A5A7B685A215B5A1F
:104950009BB2D31A9AB27B681100180000F0E0F8FD
:10496000C2E07B685822995A7B685A229B5A9AB2B5
:104970008E203B188A1A1A807B685A229B5A9BB257
:10498000002B00D1B2E03B181B88002B00D1ADE01A
:10499000EFF31083FB60FB6888243A19136001234E
:1049A0003B613B6983F31088C0467B681B681A68CB
:1049B0007B681B6851490A401A603B191B687B6180
:1049C0007B6983F31088C046EFF31083BB61BB693A
:1049D00084243A1913600123FB61FB6983F3108877
:1049E000C0467B681B689A687B681B6801218A4304
:1049F0009A603B191B683B623B6A83F31088C04690
:104A00007B688022202199507B6800221A667B688F
:104A100000229A66EFF310837B627B6A80243A1946
:104A200013600123BB62BB6A83F31088C0467B68B6
:104A30001B681A687B681B6810218A431A603B193F
:104A40001B68FB62FB6A83F31088C0467B68022206
:104A50005A663B181A887B681100180000F060F84D
:104A600044E0A423FB181A6880235B03134010D092
:104A70009C23FB181A688023DB03134009D07B6852
:104A80001B68802252031A627B68180000F05CFEEB
:104A90002FE0A423FB181B68802213400FD0A02313
:104AA000FB181B688022134009D07B68DB6E002B4B
:104AB0001ED07B68DB6E7A681000984718E0A4234C
:104AC000FB181B684022134013D0A023FB181B685F
:104AD000402213400DD07B68180000F052FC08E023
:104AE000C04606E0C04604E0C04602E0C04600E022
:104AF000C046BD462BB090BDFFFEFFFFDFFEFFFFAF
:104B000080B582B000AF7860C046BD4602B080BDBF
:104B100080B582B000AF7860C046BD4602B080BDAF
:104B200080B582B000AF78600A00BB1C1A80C04616
:104B3000BD4602B080BD000080B588B000AF78608F
:104B40001E23FB1800221A707B689A687B681B6919
:104B50001A437B685B691A437B68DB6913437B619B
:104B60007B681B681B68834A134019007B681B68BD
:104B70007A690A431A607B681B685B687E4A134047
:104B800019007B68DA687B681B680A435A607B6897
:104B90009B697B617B681B6A7A6913437B617B68D5
:104BA0001B689B68754A134019007B681B687A690B
:104BB0000A439A60724B1B6B03221340032B0DD0E8
:104BC0001BD8022B14D018D8002B02D0012B0AD0EE
:104BD00013E01F23FB1800221A7012E01F23FB189A
:104BE00002221A700DE01F23FB1804221A7008E03D
:104BF0001F23FB1808221A7003E01F23FB18102242
:104C00001A707B68DA6980231B029A425CD11F23E9
:104C1000FB181B78082B15D018DC042B0DD015DCE5
:104C2000002B02D0022B05D010E0FEF7F5FE0300AA
:104C3000BB6112E0534BBB610FE0FEF78DFE03003A
:104C4000BB610AE080231B02BB6106E00023BB615D
:104C50001E23FB1801221A70C046BB69002B00D12D
:104C60007AE0BB695A007B685B685B08D2187B6896
:104C70005B6819001000FBF747FA03003B613B69D2
:104C80000F2B1CD93A6980235B029A4217D23B69E9
:104C90009AB20E203B180F218A431A803B695B08A9
:104CA0009BB20722134099B23B183A1812880A4364
:104CB0001A807B681B683A181288DA604CE01E2361
:104CC000FB1801221A7047E01F23FB181B78082BE2
:104CD00015D018DC042B0DD015DC002B02D0022BD4
:104CE00005D010E0FEF798FE0300BB6112E0254BF3
:104CF000BB610FE0FEF730FE0300BB610AE08023DA
:104D00001B02BB6106E00023BB611E23FB180122CE
:104D10001A70C046BB69002B1ED07B685B685A08BE
:104D2000BB69D2187B685B6819001000FBF7ECF9CF
:104D300003003B613B690F2B0AD93A6980235B0270
:104D40009A4205D23B699AB27B681B68DA6003E03D
:104D50001E23FB1801221A707B6800229A667B686A
:104D60000022DA661E23FB181B781800BD4608B027
:104D700080BDC046F369FFFFFFCFFFFFFFF4FFFFD9
:104D80000010024000127A0080B582B000AF786057
:104D90007B685B6A082213400BD07B681B685B68EA
:104DA0004A4A134019007B685A6B7B681B680A43A8
:104DB0005A607B685B6A012213400BD07B681B68DA
:104DC0005B68434A134019007B689A6A7B681B68DA
:104DD0000A435A607B685B6A022213400BD07B68EF
:104DE0001B685B683B4A134019007B68DA6A7B6882
:104DF0001B680A435A607B685B6A042213400BD02D
:104E00007B681B685B68344A134019007B681A6B27
:104E10007B681B680A435A607B685B6A10221340F8
:104E20000BD07B681B689B682C4A134019007B6879
:104E30009A6B7B681B680A439A607B685B6A2022D6
:104E400013400BD07B681B689B68254A13401900F0
:104E50007B68DA6B7B681B680A439A607B685B6AD5
:104E6000402213401DD07B681B685B681D4A1340BD
:104E700019007B681A6C7B681B680A435A607B6860
:104E80001A6C80235B039A420BD17B681B685B68BA
:104E9000154A134019007B685A6C7B681B680A43EB
:104EA0005A607B685B6A802213400BD07B681B686A
:104EB0005B680E4A134019007B689A6C7B681B681C
:104EC0000A435A60C046BD4602B080BDFF7FFFFF67
:104ED000FFFFFDFFFFFFFEFFFFFFFBFFFFEFFFFFF9
:104EE000FFDFFFFFFFFFEFFFFFFF9FFFFFFFF7FF6A
:104EF00080B592B002AF78607B688422002199501F
:104F0000FDF75CF90300FB637B681B681B680822E4
:104F10001340082B2CD1FB6B802291037868464A02
:104F20000092002200F08CF8031E21D0EFF31083D2
:104F30007B627B6ABB630123BB62BB6A83F310881D
:104F4000C0467B681B681A687B681B6880218A439F
:104F50001A60BB6BFB62FB6A83F31088C0467B68F8
:104F60002022DA677B6878220021995403235FE0CE
:104F70007B681B681B6804221340042B46D1FB6B23
:104F80008022D10378682C4A0092002200F058F861
:104F9000031E3BD0EFF31083FB60FB687B630123B0
:104FA0003B613B6983F31088C0467B681B681A68C5
:104FB0007B681B6821490A401A607B6B7B617B69B7
:104FC00083F31088C046EFF31083BB61BB693B637A
:104FD0000123FB61FB6983F31088C0467B681B6873
:104FE0009A687B681B6801218A439A603B6B3B622D
:104FF0003B6A83F31088C0467B6880222021995049
:105000007B68782200219954032311E07B682022D9
:10501000DA677B688022202199507B6800221A661B
:105020007B6800225A667B6878220021995400230D
:105030001800BD4610B080BDFFFFFF01DFFEFFFF7F
:1050400080B584B000AFF860B9603B60FB1D1A709A
:1050500051E0BB6901334ED0FDF7B0F802003B6868
:10506000D31ABA699A4202D3BB69002B01D1032338
:1050700051E0FB681B681B68042213403BD0BB68EF
:10508000802B38D0BB68402B35D0FB681B68DB69B0
:1050900008221340082B11D1FB681B6808221A62F2
:1050A000FB68180000F0F2F8FB6884220821995090
:1050B000FB6878220021995401232CE0FB681B68CF
:1050C000DA6980231B011A4080231B019A4212D106
:1050D000FB681B68802212011A62FB68180000F04E
:1050E000D5F8FB68842220219950FB6878220021A2
:1050F000995403230FE0FB681B68DB69BA6813400F
:10510000BA68D31A5A425341DBB21A00FB1D1B780E
:105110009A429ED000231800BD4604B080BD000016
:1051200080B590B000AFF860B960BB1D1A80FB6815
:10513000BA685A65FB68BA1D582112885A52FB6832
:10514000BA1D5A2112885A52FB6800229A66FB68DF
:105150009A6880235B019A420DD1FB681B69002B82
:1051600004D1FB685C22464999521AE0FB685C2234
:10517000FF21995215E0FB689B68002B0DD1FB685D
:105180001B69002B04D1FB685C22FF21995208E0C7
:10519000FB685C227F21995203E0FB685C220021BE
:1051A0009952FB68842200219950FB6880222221B9
:1051B0009950EFF31083BB62BB6AFB630123FB6270
:1051C000FB6A83F31088C046FB681B689A68FB681B
:1051D0001B6801210A439A60FB6B3B633B6B83F3C3
:1051E0001088C046FB689A6880235B019A4207D109
:1051F000FB681B69002B03D1FB68224A9A6602E018
:10520000FB68214A9A66FB681B69002B19D0EFF3F3
:105210001083FB61FB697B6301233B623B6A83F381
:105220001088C046FB681B681A68FB681B689021E1
:1052300049000A431A607B6B7B627B6A83F31088A8
:1052400018E0EFF310833B613B69BB6301237B6193
:105250007B6983F31088C046FB681B681A68FB688B
:105260001B6820210A431A60BB6BBB61BB6983F3D7
:105270001088C04600231800BD4610B080BDC0464F
:10528000FF01000091550008D953000880B58EB089
:1052900000AF7860EFF310837B617B697B63012350
:1052A000BB61BB6983F31088C0467B681B681A68C2
:1052B0007B681B6826490A401A607B6BFB61FB69AF
:1052C00083F31088C046EFF310833B623B6A3B6375
:1052D00001237B627B6A83F31088C0467B681B686E
:1052E0009A687B681B6801218A439A603B6BBB62AA
:1052F000BB6A83F31088C0467B681B6E012B18D1F4
:10530000EFF31083BB60BB68FB620123FB60FB68AB
:1053100083F31088C0467B681B681A687B681B682B
:1053200010218A431A60FB6A3B613B6983F3108852
:10533000C0467B688022202199507B6800221A6633
:105340007B6800229A66C046BD460EB080BDC0464E
:10535000DFFEFFFF80B584B000AF78607B685B6ADA
:10536000FB60FB685A2200219952FB6852220021FF
:105370009952FB681800FFF7CBFBC046BD4604B04E
:1053800080BD80B586B000AF7860EFF31083BB605E
:10539000BB687B610123FB60FB6883F31088C04618
:1053A0007B681B681A687B681B6840218A431A6007
:1053B0007B693B613B6983F31088C0467B68202290
:1053C000DA677B680022DA667B681800FFF798FBD3
:1053D000C046BD4606B080BD80B594B000AF7860D1
:1053E0004E203B187A685C21525A1A807B688022D2
:1053F0009B58222B00D0BAE07B681A684C217B189E
:10540000928C1A807B181B88DAB23B181B88D9B2A1
:105410007B685B6D0A40D2B21A707B685B6D5A1C68
:105420007B685A657B685A229B5A9BB2013B99B2B2
:105430007B685A2299527B685A229B5A9BB2002B56
:1054400000D09CE0EFF310837B627B6ABB64012396
:10545000BB62BB6A83F31088C0467B681B681A680E
:105460007B681B6848490A401A60BB6CFB62FB6A98
:1054700083F31088C046EFF310833B633B6B7B6480
:1054800001237B637B6B83F31088C0467B681B68BA
:105490009A687B681B6801218A439A607B6CBB63B6
:1054A000BB6B83F31088C0467B6880222021995013
:1054B0007B6800229A667B6800225A667B681B68BC
:1054C0005A6880231B04134018D0EFF31083BB618C
:1054D000BB693B640123FB61FB6983F31088C04611
:1054E0007B681B681A687B681B6828490A401A6039
:1054F0003B6C3B623B6A83F31088C0467B681B6E43
:10550000012B2FD17B6800221A66EFF31083FB601A
:10551000FB68FB6301233B613B6983F31088C04652
:105520007B681B681A687B681B6810218A431A60B5
:10553000FB6B7B617B6983F31088C0467B681B68CB
:10554000DB6910221340102B03D17B681B681022EB
:105550001A627B6858229A5A7B6811001800FFF77C
:10556000DFFA0CE07B681800FCF7BCFA07E07B6808
:105570001B689A697B681B6808210A439A61C046C8
:10558000BD4614B080BDC046DFFEFFFFFFFFFFFB3E
:1055900080B594B000AF78604E203B187A685C21EB
:1055A000525A1A807B6880229B58222B00D0BAE086
:1055B0007B681A684C217B18928C1A807B685B6D23
:1055C000BB647B183A181B88128813409AB2BB6CD4
:1055D0001A807B685B6D9A1C7B685A657B685A22CF
:1055E0009B5A9BB2013B99B27B685A2299527B68C5
:1055F0005A229B5A9BB2002B00D09CE0EFF3108301
:105600003B623B6A7B6401237B627B6A83F3108885
:10561000C0467B681B681A687B681B6848490A405B
:105620001A607B6CBB62BB6A83F31088C046EFF3E1
:105630001083FB62FB6A3B6401233B633B6B83F398
:105640001088C0467B681B689A687B681B680121CC
:105650008A439A603B6C7B637B6B83F31088C04604
:105660007B688022202199507B6800229A667B68A3
:1056700000225A667B681B685A6880231B0413400B
:1056800018D0EFF310837B617B69FB630123BB615F
:10569000BB6983F31088C0467B681B681A687B6807
:1056A0001B6828490A401A60FB6BFB61FB6983F3A6
:1056B0001088C0467B681B6E012B2FD17B680022AF
:1056C0001A66EFF31083BB60BB68BB630123FB600A
:1056D000FB6883F31088C0467B681B681A687B6888
:1056E0001B6810218A431A60BB6B3B613B6983F3E3
:1056F0001088C0467B681B68DB6910221340102BA2
:1057000003D17B681B6810221A627B6858229A5A60
:105710007B6811001800FFF703FA0CE07B681800A3
:10572000FCF7E0F907E07B681B689A697B681B68F7
:1057300008210A439A61C046BD4614B080BDC046E8
:10574000DFFEFFFFFFFFFFFB80B582B000AF786098
:10575000C046BD4602B080BD10B5034B01001868BD
:1057600000F030F810BDC0462800002010B5034BF3
:105770000100186800F0FCF810BDC04628000020A9
:1057800070B50F4E0D0031680400002902D100F001
:10579000B1F830602900200000F0ACF8431C03D1C0
:1057A00001256D42280070BD0323C51C9D43A842FE
:1057B000F8D0291A200000F09DF80130F2D1EFE76F
:1057C0000C020020F7B50322CB1C934308330500DD
:1057D0001F000C2B34D20C27B94233D8280000F01C
:1057E00071F8374E33681C00002C2FD13900280087
:1057F000FFF7C6FF0400431C5FD134680094009B90
:10580000002B4AD1002C52D023682800E3180099BD
:10581000019300F06FF8019B834248D12368280070
:10582000FF1A3900FFF7ACFF013040D02368DB19C5
:10583000236033685A68002A33D1009B336019E033
:10584000002BC9DA0C232B600020FEBD2168C91B88
:1058500020D40B290AD9E2192760A34204D132606F
:1058600063681160536005E05A60F9E76268A3421B
:105870000ED13260280000F02DF8200007220B30F6
:10588000231D9043C21A9842DFD01B1AA350DCE7B5
:105890005A60EFE723006468A6E7009C6368009302
:1058A000ADE71A005B68A342FBD10023DAE70C23C3
:1058B00028002B6000F00EF8C6E70760DAE7C04664
:1058C0001002002010B5024800F050F810BDC0468C
:1058D0005003002010B5024800F049F810BDC04642
:1058E0005003002003008218934200D170471970C2
:1058F0000133F9E7002370B5064D040008002B6062
:10590000FCF79CFB431C03D12B68002B00D02360C9
:1059100070BDC0464C030020014B18687047C0465C
:105920002800002070B500260C4C0D4D641BA410FF
:10593000A64209D1002600F065F80A4C0A4D641B06
:10594000A410A64205D170BDB300EB5898470136AC
:10595000EEE7B300EB5898470136F2E7305B0008FA
:10596000305B0008345B0008305B0008704770470C
:1059700070B505000C1E10D0043C2368002B00DA23
:10598000E4182800FFF79EFF1D4A1368002B05D17D
:10599000636014602800FFF79DFF70BDA34208D923
:1059A000206821188B42F3D119685B6809182160BF
:1059B000EEE71A005B68002B01D0A342F9D9116809
:1059C0005018A0420BD1206809185018116083426A
:1059D000E0D118685B68411811605360DAE7A042B3
:1059E00002D90C232B60D5E7206821188B4203D104
:1059F00019685B680918216063605460CAE7C04693
:105A000010020020F8B5C046F8BC08BC9E4670479E
:0C5A1000F8B5C046F8BC08BC9E467047C4
:105A1C004D4F44453A204155544F0000504C4541A0
:105A2C00534520534C4F5720444F574E0000000015
:105A3C004D4F44453A204D414E55414C000000001D
:105A4C0057414954204C454420544F20474F0000A7
:105A5C004D4F44453A20534C4F5700004652454554
:105A6C002D5354415920414C455254004D4F4445FF
:105A7C003A2053455454494E47000000494E435276
:105A8C00454153452054494D454C454400000000C8
:105A9C004D4F44453A204155544F0000504C454120
:105AAC00534520534C4F5720444F574E0000000095
:105ABC00D004000890050008D20600083206000841
:105ACC00D20600088C130008C2130008F813000853
