:020000040800F2
:10000000001000209D0F0008950E00089B0E0008B0
:1000100000000000000000000000000000000000E0
:10002000000000000000000000000000A10E000819
:100030000000000000000000AB0E0008B50E000834
:10004000ED0F0008ED0F0008ED0F0008ED0F0008A0
:10005000ED0F0008ED0F0008ED0F0008ED0F000890
:1000600000000000ED0F0008ED0F0008ED0F000884
:10007000ED0F0008ED0F0008ED0F0008C50E000899
:10008000ED0F00080000000000000000ED0F000868
:1000900000000000ED0F0008ED0F0008ED0F000854
:1000A00000000000ED0F000800000000ED0F000848
:1000B0000000000000000000000000000000000040
:1000C00010B5064C2378002B07D1054B002B02D02E
:1000D000044800E000BF0123237010BD240000206D
:1000E00000000000D0260008044B10B5002B03D000
:1000F0000349044800E000BF10BDC04600000000F6
:1001000028000020D0260008002243088B4274D328
:1001100003098B425FD3030A8B4244D3030B8B4208
:1001200028D3030C8B420DD3FF22090212BA030C11
:100130008B4202D31212090265D0030B8B4219D3F2
:1001400000E0090AC30B8B4201D3CB03C01A524112
:10015000830B8B4201D38B03C01A5241430B8B425A
:1001600001D34B03C01A5241030B8B4201D30B0343
:10017000C01A5241C30A8B4201D3CB02C01A52416A
:10018000830A8B4201D38B02C01A5241430A8B422D
:1001900001D34B02C01A5241030A8B4201D30B0216
:1001A000C01A5241CDD2C3098B4201D3CB01C01A30
:1001B000524183098B4201D38B01C01A524143093A
:1001C0008B4201D34B01C01A524103098B4201D328
:1001D0000B01C01A5241C3088B4201D3CB00C01A95
:1001E000524183088B4201D38B00C01A524143080D
:1001F0008B4201D34B00C01A5241411A00D2014632
:10020000524110467047FFE701B5002000F0F0F8BA
:1002100002BDC0460029F7D076E7704703460B437E
:100220007FD4002243088B4274D303098B425FD3EF
:10023000030A8B4244D3030B8B4228D3030C8B421B
:100240000DD3FF22090212BA030C8B4202D3121201
:10025000090265D0030B8B4219D300E0090AC30BD6
:100260008B4201D3CB03C01A5241830B8B4201D383
:100270008B03C01A5241430B8B4201D34B03C01A6C
:100280005241030B8B4201D30B03C01A5241C30AE4
:100290008B4201D3CB02C01A5241830A8B4201D355
:1002A0008B02C01A5241430A8B4201D34B02C01A3F
:1002B0005241030A8B4201D30B02C01A5241CDD2E4
:1002C000C3098B4201D3CB01C01A524183098B422F
:1002D00001D38B01C01A524143098B4201D34B0118
:1002E000C01A524103098B4201D30B01C01A52417B
:1002F000C3088B4201D3CB00C01A524183088B4202
:1003000001D38B00C01A524143088B4201D34B00EA
:10031000C01A5241411A00D201465241104670475C
:100320005DE0CA0F00D04942031000D34042534061
:1003300000229C4603098B422DD3030A8B4212D321
:10034000FC22890112BA030A8B420CD38901921153
:100350008B4208D3890192118B4204D389013AD090
:10036000921100E08909C3098B4201D3CB01C01A65
:10037000524183098B4201D38B01C01A5241430978
:100380008B4201D34B01C01A524103098B4201D366
:100390000B01C01A5241C3088B4201D3CB00C01AD3
:1003A000524183088B4201D38B00C01A5241D9D2EB
:1003B00043088B4201D34B00C01A5241411A00D26C
:1003C0000146634652415B10104601D34042002B68
:1003D00000D54942704763465B1000D3404201B5E7
:1003E000002000F005F802BD0029F8D016E770479C
:1003F0007047C04680B500AF1D4BDB68012B0ED1A6
:100400009023DB058021180001F09CF8031E06D123
:10041000184B01221A60C821032000F065FD144B1F
:10042000DB68012B0ED19023DB050821180001F0B9
:1004300089F8031E06D10F4B01225A60C821032000
:1004400000F052FD0A4BDB68012B0ED19023DB0537
:100450000221180001F076F8031E06D1C8210320FE
:1004600000F042FD034B01229A60C046BD4680BDAC
:100470000C0000204000002080B582B000AF786002
:10048000084B7A689200D358012B06D1054B7A6845
:1004900092000021D150012300E000231800BD4646
:1004A00002B080BD4000002080B500AFC14B1B688A
:1004B000042B00D97BE19A00BF4BD3181B689F46E1
:1004C000802359019023DB050122180001F057F821
:1004D0009023DB0501221021180001F050F8802341
:1004E00059009023DB050122180001F048F8902301
:1004F000DB0501220421180001F041F8AF4B012275
:100500002021180001F03BF8AC4B0122102118000B
:1005100001F035F8A74B01221A60A94B1A68A94BC4
:100520001B68D318FA2291001800FFF777FE03002A
:100530001A00A54B1A60A24B1B68FA229100180002
:10054000FFF76CFE03001A00A04B1A609C4B1B685F
:100550001900002000F0C8FCFA239B0019000120BC
:1005600000F0C2FC0A21022000F0BEFCF8E090235B
:10057000DB0501221021180001F001F89023DB05B2
:1005800001220421180000F0FAFF80235901902372
:10059000DB050022180000F0F2FF884B002210213A
:1005A000180000F0ECFF8A4B1B68012B16D1814B21
:1005B00002221A60834B1B681900002000F094FC93
:1005C000814B05221A607F4B1B68FA2291001800AC
:1005D000FFF724FE03001A007C4B1A600120FFF78E
:1005E0004BFF0300012B00D0B3E0724B05221A60D1
:1005F00000F0F0F8DCE0714B01221021180000F04F
:10060000BEFF6E4B00222021180000F0B8FF704B97
:100610001B68012B00D09EE0664B03221A60684BDA
:100620001B68FA2291001800FFF7F8FD03001A007A
:10063000654B1A60624B1A68624B1B68D318FA222A
:1006400091001800FFF7EAFD03001A005F4B1A60E3
:100650005B4B1B681900002000F046FC7BE0802308
:1006600059019023DB050122180000F088FF534B4D
:1006700001222021180000F082FF802359009023DE
:10068000DB050022180000F07AFF9023DB05002232
:100690000421180000F073FF4D4B1B68012B16D18D
:1006A000444B04221A60474B1B68FA229100180041
:1006B000FFF7B4FD03001A00434B1A60434B0522B9
:1006C0001A60404B1B681900002000F00DFC01204F
:1006D000FFF7D2FE0300012B3FD1364B06221A60F2
:1006E00000F078F864E09023DB0500221021180068
:1006F00000F045FF802359009023DB0501221800FC
:1007000000F03DFF324B1B68012B28D1294B012201
:100710001A602B4B1A682B4B1B68D318FA229100D6
:100720001800FFF77BFD03001A00274B1A60244BCB
:100730001B68FA2291001800FFF770FD03001A00F1
:10074000224B1A601E4B1B681900002000F0CCFBE6
:1007500005E0C04604E0C04602E0C04600E0C046F6
:10076000194B1A68194B1B681900100000F0C6F9E4
:10077000174B9B68012B05D10A21022000F0B4FB26
:1007800000F04CF8124B5B68012B11D1FA239B004F
:100790001900012000F0A8FB0B4B1B685A1E0A4BE6
:1007A0001A600A4B1B685A1E084B1A6000E0C046CC
:1007B000BD4680BD4C000020E8260008000400482B
:1007C0000000002004000020500000205400002001
:1007D0000C00002080B500AF9023DB050022012132
:1007E000180000F0CCFE0B4B00220221180000F094
:1007F000C6FE094B00220821180000F0C0FE80232D
:1008000019019023DB050022180000F0B8FEC04655
:10081000BD4680BD001400480004004880B500AF0C
:10082000FFF7D8FF274B1B68032B2DD03ADC022B98
:100830001ED037DC002B02D0012B0DD032E09023EC
:10084000DB0501220121180000F099FE1E4B1B68F8
:10085000180000F03FF826E01C4B0122022118008E
:1008600000F08DFE184B5B68180000F033F81AE0BA
:10087000174B01220821180000F081FE124B9B68E3
:10088000180000F027F80EE0802319019023DB0503
:100890000122180000F073FE0B4BDB68180000F01B
:1008A00019F800E0C046074B1B685A1C054B1A603C
:1008B000044B1B68032B02DD024B00221A60C0466A
:1008C000BD4680BD6800002058000020001400488C
:1008D0000004004880B582B000AF78607B68092BC7
:1008E00000D9FFE07B689A00814BD3181B689F46B4
:1008F000804B00220121180000F041FE7E4B0022B7
:100900008021180000F03BFE7B4B002240211800A4
:1009100000F035FE784B00220221180000F02FFE77
:10092000E1E0744B01220121180000F028FE724B17
:1009300000228021180000F022FE6F4B002240218F
:10094000180000F01CFE6C4B00220221180000F081
:1009500016FEC8E0674B00220121180000F00FFED0
:10096000654B01228021180000F009FE624B002235
:100970004021180000F003FE5F4B00220221180006
:1009800000F0FDFDAFE05B4B01220121180000F0FB
:10099000F6FD594B01228021180000F0F0FD564B66
:1009A00000224021180000F0EAFD534B00220221F2
:1009B000180000F0E4FD96E04E4B002201211800E3
:1009C00000F0DDFD4C4B00228021180000F0D7FD27
:1009D000494B01224021180000F0D1FD464B002276
:1009E0000221180000F0CBFD7DE0424B01220121E5
:1009F000180000F0C4FD404B00228021180000F0D8
:100A0000BEFD3D4B01224021180000F0B8FD3A4BDD
:100A100000220221180000F0B2FD64E0354B0022F4
:100A20000121180000F0ABFD334B0122802118009A
:100A300000F0A5FD304B01224021180000F09FFD81
:100A40002D4B00220221180000F099FD4BE0294BAC
:100A500001220121180000F092FD274B0122802184
:100A6000180000F08CFD244B01224021180000F0FA
:100A700086FD214B00220221180000F080FD32E0AB
:100A80001C4B00220121180000F079FD1A4B0022B6
:100A90008021180000F073FD174B00224021180040
:100AA00000F06DFD144B01220221180000F067FDDB
:100AB00019E0104B01220121180000F060FD0E4BDF
:100AC00000228021180000F05AFD0B4B002240212B
:100AD000180000F054FD084B01220221180000F01C
:100AE0004EFD00E0C046C046BD4602B080BDC046D7
:100AF000FC260008001400480004004880B582B0BD
:100B000000AF786039607B680A211800FFF786FB28
:100B100003001A00104B1A607B680A211800FFF7C7
:100B200063FC0B001A000C4B5A603B680A2118004A
:100B3000FFF774FB03001A00074B9A603B680A2119
:100B40001800FFF751FC0B001A00034BDA60C04697
:100B5000BD4602B080BDC0465800002080B500AF41
:100B600000F046FA00F00EF800F0A0F800F04AF8A5
:100B7000034B180001F0CCF9FFF796FCFCE7C046E8
:100B80007C00002090B591B000AF10243B191800F4
:100B900030231A00002101F093FD3B0018001023C0
:100BA0001A00002101F08CFD21007B1802221A603E
:100BB0007B180122DA607B1810221A617B18002250
:100BC0001A627B18180000F015FD031E01D000F01A
:100BD00013F93B0007221A603B0000225A603B00D9
:100BE00000229A603B000022DA603B0000211800DE
:100BF00001F01AF8031E01D000F0FEF8C046BD4611
:100C000011B090BD80B586B000AF0823FB18180066
:100C100010231A00002101F053FD3B0018000823A7
:100C20001A00002101F04CFD1E4B8022D2051A60F3
:100C30001C4B1D4A5A601B4B00229A60194B09221B
:100C4000DA60184B00221A61164B00229A61154B8C
:100C5000180001F00DF9031E01D000F0CDF80821B5
:100C60007B18802252011A607A180E4B110018006E
:100C700001F088FA031E01D000F0BEF83B0000220C
:100C80001A603B0000225A603A00064B110018001F
:100C900001F08AFC031E01D000F0AEF8C046BD464C
:100CA00006B080BD7C0000203F1F000090B589B0D9
:100CB00000AF0C243B19180014231A00002101F086
:100CC000FFFC494B5A69484B8021C9030A435A61CA
:100CD000454B5A698023DB031340BB60BB68424B22
:100CE0005A69414B802189020A435A613E4B5A6935
:100CF00080239B0213407B607B683B4B5A693A4BD5
:100D00008021C9020A435A61374B5A698023DB02AA
:100D100013403B603B68354B00220321180000F074
:100D20002EFC33499023DB050022180000F027FC3D
:100D3000304B0022FA21180000F021FC3B1903225D
:100D40001A603B1901225A603B1900229A603B1934
:100D50000022DA603B19254A1900100000F08AFAD7
:100D60003B19234A1A603B1901225A603B190022A1
:100D70009A603B190022DA603A199023DB051100D2
:100D8000180000F077FA3B198A221A603B190022FA
:100D90005A603B1901229A603A199023DB05110031
:100DA000180000F067FA21007B18FA221A607B18FD
:100DB00001225A607B1800229A607B180022DA60B8
:100DC0007B180C4A1900100000F054FA80235B02D3
:100DD000180000F0F1FB80239B02180000F0ECFBF0
:100DE000C046BD4609B090BD001002400014004846
:100DF000151900000004004880B500AF72B6C04667
:100E0000FEE7000080B582B000AF0F4B9A690E4B31
:100E100001210A439A610C4B9B69012213407B60BC
:100E20007B68094BDA69084B802149050A43DA617E
:100E3000054BDA6980235B0513403B603B68C04685
:100E4000BD4602B080BDC0460010024080B584B0EF
:100E500000AF78607B681A688023DB059A4213D163
:100E60000B4BDA690A4B01210A43DA61084BDB6953
:100E700001221340FB60FB68002200210F2000F0DC
:100E8000C7F90F2000F0D9F9C046BD4604B080BDB7
:100E90000010024080B500AFFEE780B500AFFEE76E
:100EA00080B500AFC046BD4680BD80B500AFC0462E
:100EB000BD4680BD80B500AF00F0E2F8C046BD463B
:100EC00080BD000080B500AF034B180001F06CF846
:100ED000C046BD4680BDC0467C00002080B500AF46
:100EE000C046BD4680BD000080B582B000AF7860CE
:100EF00039603B680A211800FFF790F903001900D8
:100F0000064B7A689200D150054B7A689200002116
:100F1000D150C046BD4602B080BDC0466C00002026
:100F20000C00002080B582B000AF00237B601CE085
:100F3000124B7A689200D358002B13DD0F4B7A685E
:100F40009200D358591E0D4B7A689200D1500B4B2A
:100F50007A689200D358002B04DC094B7A6892001F
:100F60000121D1507B6801337B607B68032BDFDD7F
:100F7000C046C046BD4602B080BDC0466C000020E1
:100F80000C00002080B582B000AF7860FFF732FA25
:100F9000FFF7C8FFC046BD4602B080BD0D4885467C
:100FA000FFF79CFF0C480D490D4A002302E0D4587E
:100FB000C4500433C4188C42F9D30A4A0A4C0023A3
:100FC00001E013600432A242FBD301F055FBFFF7AE
:100FD000C5FDFEE7001000200000002024000020D6
:100FE0005C27000824000020C8000020FEE7000065
:100FF00080B500AF074B1A68064B10210A431A60F0
:10100000002000F009F8FFF7FDFE00231800BD46A0
:1010100080BDC0460020024090B583B000AF78602C
:10102000144B1C68144B1B781900FA239800FFF727
:101030006BF8030019002000FFF766F803001800A2
:1010400000F00BF9031E01D001230FE07B68032B96
:101050000BD8796801235B420022180000F0D8F811
:10106000064B7A681A60002300E001231800BD4691
:1010700003B090BD08000020200000201C000020CC
:1010800080B500AF054B1B781A00054B1B68D218C2
:10109000034B1A60C046BD4680BDC04620000020FC
:1010A000C400002080B500AF024B1B681800BD468D
:1010B00080BDC046C400002080B582B000AF0200F1
:1010C000FB1D1A70FB1D1B787F2B09D8FB1D1B789D
:1010D0001A001F231A40044B012191400A001A6094
:1010E000C046BD4602B080BD00E100E090B583B0CF
:1010F00000AF02003960FB1D1A70FB1D1B787F2BAF
:1011000028D82F4AFB1D1B785BB29B08C0339B007D
:101110009B58FA1D1278110003220A40D200FF21C9
:1011200091400A00D2431A4011003B689B01FF2204
:101130001A40FB1D1B78180003230340DB009A4074
:101140001F48FB1D1B785BB29B080A43C0339B0002
:101150001A5031E01B4AFB1D1B7819000F230B406E
:10116000083B9B0806339B00D31804331B68FA1D09
:101170001278110003220A40D200FF2191400A0098
:10118000D2431A4011003B689B01FF221A40FB1D0D
:101190001B78180003230340DB009A400948FB1D1D
:1011A0001B781C000F232340083B9B080A4306338F
:1011B0009B00C31804331A60C046BD4603B090BDFF
:1011C00000E100E000ED00E080B582B000AF7860A3
:1011D0007B685A1E80235B049A4201D3012310E0EE
:1011E0000A4B7A68013A5A6001235B4203211800D6
:1011F000FFF77CFF054B00229A60044B07221A6020
:1012000000231800BD4602B080BDC04610E000E0DB
:1012100080B584B000AFB9607A600F217B18021CE2
:101220001A70BA687B181B785BB211001800FFF7C0
:101230005DFFC046BD4604B080BD80B582B000AF42
:101240000200FB1D1A70FB1D1B785BB21800FFF734
:1012500033FFC046BD4602B080BD80B582B000AF4E
:1012600078607B681800FFF7AFFF03001800BD46E9
:1012700002B080BD80B586B000AF786039600023D1
:101280007B6149E13B681B6801217A6991400A0052
:101290001340FB60FB68002B00D13AE13B685B68C0
:1012A00003221340012B05D03B685B6803221340E7
:1012B000022B30D17B689B683B617B695B0003221A
:1012C0009A401300DA433B6913403B613B68DA689C
:1012D0007B695B009A4013003A6913433B617B686A
:1012E0003A699A607B685B683B6101227B699A403E
:1012F0001300DA433B6913403B613B685B681B09A1
:1013000001221A407B699A4013003A6913433B61FA
:101310007B683A695A603B685B6803221340032B81
:1013200017D07B68DB683B617B695B0003229A40D6
:101330001300DA433B6913403B613B689A687B6961
:101340005B009A4013003A6913433B617B683A693A
:10135000DA603B685B6803221340022B23D17B6970
:10136000DA087B6808329200D3583B617B69072218
:1013700013409B000F229A401300DA433B6913404D
:101380003B613B681A697B6907210B409B009A40CF
:1013900013003A6913433B617B69DA087B680832C2
:1013A00092003969D1507B681B683B617B695B00A7
:1013B00003229A401300DA433B6913403B613B68C8
:1013C0005B6803221A407B695B009A4013003A690C
:1013D00013433B617B683A691A603B685A68C023D3
:1013E0009B02134000D194E0514B9A69504B01216C
:1013F0000A439A614E4B9B6901221340BB60BB6854
:101400004C4A7B699B0802339B009B583B617B697C
:10141000032213409B000F229A401300DA433B69DA
:1014200013403B617A689023DB059A420DD07B68BC
:10143000414A934207D07B68404A934201D102233C
:1014400004E0052302E0012300E000237A69032180
:101450000A40920093403A6913433B6135497B69E6
:101460009B0802339B003A695A50354B9B683B619D
:10147000FB68DA433B6913403B613B685A68802351
:101480005B03134003D03A69FB6813433B612C4B69
:101490003A699A602A4BDB683B61FB68DA433B6937
:1014A00013403B613B685A6880239B03134003D081
:1014B0003A69FB6813433B61214B3A69DA60204B80
:1014C0005B683B61FB68DA433B6913403B613B6807
:1014D0005A6880239B02134003D03A69FB68134388
:1014E0003B61174B3A695A60154B1B683B61FB68BF
:1014F000DA433B6913403B613B685A6880235B02D7
:10150000134003D03A69FB6813433B610C4B3A69C3
:101510001A607B6901337B613B681A687B69DA403A
:10152000131E00D0AEE6C046C046BD4606B080BD24
:10153000001002400000014000040048000800487C
:101540000004014080B584B000AF78600A00BB1C85
:101550001A807B681B69BA1C1288134004D00F23C1
:10156000FB1801221A7003E00F23FB1800221A70E7
:101570000F23FB181B781800BD4604B080BD80B552
:1015800082B000AF786008001100BB1C021C1A80FA
:101590007B1C0A1C1A707B1C1B78002B04D0BB1C04
:1015A0001A887B689A6103E0BB1C1A887B689A6280
:1015B000C046BD4602B080BD80B584B000AF786043
:1015C0000A4B9A69094B01210A439A61074B9B69AF
:1015D00001221340FB60FB68054B1968044B7A68D5
:1015E0000A431A60C046BD4604B080BD00100240E8
:1015F0000000014080B588B000AF78607B68002BA8
:1016000001D1012301E37B681B680122134000D153
:101610008DE0C34B5B680C221340042B0ED0C04BF3
:101620005B680C221340082B16D1BD4B5A688023EF
:101630005B021A4080235B029A420DD1B84B1A68B4
:1016400080239B02134000D170E07B685B68002B15
:1016500000D06BE00123D8E27B685B68012B07D1E7
:10166000AF4B1A68AE4B802149020A431A602FE043
:101670007B685B68002B0CD1A94B1A68A84BA94961
:101680000A401A60A64B1A68A54BA7490A401A607F
:101690001EE07B685B68052B0ED1A14B1A68A04B3E
:1016A0008021C9020A431A609D4B1A689C4B802115
:1016B00049020A431A600BE0994B1A68984B994902
:1016C0000A401A60964B1A68954B97490A401A606F
:1016D0007B685B68002B14D0FFF7E4FC0300BB6160
:1016E00008E0FFF7DFFC0200BB69D31A642B01D9C5
:1016F00003238AE28A4B1A6880239B021340F0D0AE
:1017000015E0FFF7CFFC0300BB6108E0FFF7CAFC60
:101710000200BB69D31A642B01D9032375E2804B05
:101720001A6880239B021340F0D100E0C0467B681A
:101730001B680222134000D169E0794B5B680C22E0
:1017400013400BD0764B5B680C221340082B1CD146
:10175000734B5A6880235B02134016D1704B1B6891
:101760000222134005D07B68DB68012B01D00123E6
:101770004BE26B4B1B68F822934319007B681B6993
:10178000DA00674B0A431A6041E07B68DB68002B94
:1017900024D0634B1A68624B01210A431A60FFF799
:1017A00081FC0300BB6108E0FFF77CFC0200BB6921
:1017B000D31A022B01D9032327E2594B1B680222BB
:1017C0001340F1D0564B1B68F822934319007B68F5
:1017D0001B69DA00524B0A431A6018E0504B1A6832
:1017E0004F4B01218A431A60FFF75CFC0300BB6189
:1017F00008E0FFF757FC0200BB69D31A022B01D99E
:10180000032302E2464B1B6802221340F1D17B689E
:101810001B680822134036D07B68DB69002B19D087
:101820003F4B5A6A3E4B01210A435A62FFF73AFC8A
:101830000300BB6108E0FFF735FC0200BB69D31A67
:10184000022B01D90323E0E1354B5B6A02221340EE
:10185000F1D018E0324B5A6A314B01218A435A6267
:10186000FFF720FC0300BB6108E0FFF71BFC020050
:10187000BB69D31A022B01D90323C6E1284B5B6A4B
:1018800002221340F1D17B681B680422134000D16F
:10189000B4E01F203B1800221A70214BDA69802324
:1018A0005B05134010D11E4BDA691D4B80214905A1
:1018B0000A43DA611A4BDA6980235B051340FB6047
:1018C000FB683B1801221A70184B1A6880235B00D2
:1018D00013401AD1154B1A68144B802149000A4352
:1018E0001A60FFF7DFFB0300BB6108E0FFF7DAFBDC
:1018F0000200BB69D31A642B01D9032385E10B4B8A
:101900001A6880235B001340F0D07B689B68012B32
:101910000ED1034B1A6A024B01210A431A6235E0C9
:1019200000100240FFFFFEFFFFFFFBFF00700040C2
:101930007B689B68002B0CD1B64B1A6AB54B012112
:101940008A431A62B34B1A6AB24B04218A431A6261
:101950001CE07B689B68052B0CD1AE4B1A6AAD4B23
:1019600004210A431A62AB4B1A6AAA4B01210A43AB
:101970001A620BE0A74B1A6AA64B01218A431A622E
:10198000A44B1A6AA34B04218A431A627B689B68A2
:10199000002B14D0FFF786FB0300BB6109E0FFF7C3
:1019A00081FB0200BB69D31A9B4A934201D90323EE
:1019B0002BE1984B1B6A02221340F0D013E0FFF793
:1019C00071FB0300BB6109E0FFF76CFB0200BB6920
:1019D000D31A914A934201D9032316E18D4B1B6A16
:1019E00002221340F0D11F23FB181B78012B05D1D5
:1019F000884BDA69874B89490A40DA617B681B6842
:101A00001022134063D07B685B69012B2AD1814B84
:101A10005A6B804B04210A435A637E4B5A6B7D4BB1
:101A200001210A435A63FFF73DFB0300BB6108E055
:101A3000FFF738FB0200BB69D31A022B01D903233D
:101A4000E3E0744B5B6B02221340F1D0714B5B6B94
:101A5000F822934319007B689B69DA006D4B0A43B7
:101A60005A6334E07B685B69053311D1694B5A6B6B
:101A7000684B04218A435A63664B5B6BF82293439D
:101A800019007B689B69DA00624B0A435A631EE0C7
:101A9000604B5A6B5F4B04210A435A635D4B5A6B90
:101AA0005C4B01218A435A63FFF7FCFA0300BB61D8
:101AB00008E0FFF7F7FA0200BB69D31A022B01D93D
:101AC0000323A2E0534B5B6B02221340F1D17B68EE
:101AD0001B6A002B00D197E04E4B5B680C22134031
:101AE000082B00D16BE07B681B6A022B4CD1494B61
:101AF0001A68484B4A490A401A60FFF7D3FA0300B4
:101B0000BB6108E0FFF7CEFA0200BB69D31A022BD3
:101B100001D9032379E03F4B1A6880239B041340CB
:101B2000F0D13C4BDB6A0F22934319007B68DA6AE1
:101B3000384B0A43DA62374B5B683A4A1340190064
:101B40007B689A6A7B685B6A1A43324B0A435A6025
:101B5000304B1A682F4B802149040A431A60FFF763
:101B6000A1FA0300BB6108E0FFF79CFA0200BB6921
:101B7000D31A022B01D9032347E0264B1A6880238E
:101B80009B041340F0D03FE0224B1A68214B2449BC
:101B90000A401A60FFF786FA0300BB6108E0FFF70E
:101BA00081FA0200BB69D31A022B01D903232CE06E
:101BB000184B1A6880239B041340F0D124E07B6803
:101BC0001B6A012B01D101231FE0124B5B687B6173
:101BD000104BDB6A3B617A6980235B021A407B68A9
:101BE0005B6A9A420ED13B690F221A407B68DB6A1E
:101BF0009A4207D17A69F0239B031A407B689B6A5B
:101C00009A4201D0012300E000231800BD4608B02D
:101C100080BDC0460010024088130000FFFFFFEFA8
:101C2000FFFFFFFEFFFFC2FF80B584B000AF78600A
:101C300039607B68002B01D10123B3E05B4B1B684B
:101C4000012213403A689A4211D9584B1B6801226D
:101C500093431900554B3A680A431A60534B1B686B
:101C6000012213403A689A4201D001239AE07B682E
:101C70001B680222134015D07B681B6804221340A6
:101C800006D04B4B5A684A4BE021C9000A435A60C0
:101C9000474B5B68F022934319007B689A68444B7A
:101CA0000A435A607B681B680122134040D07B685E
:101CB0005B68012B07D13E4B1A6880239B021340BF
:101CC00014D101236EE07B685B68022B07D1384B8F
:101CD0001A6880239B04134008D1012362E0344B2F
:101CE0001B680222134001D101235BE0304B5B688B
:101CF0000322934319007B685A682D4B0A435A60AC
:101D0000FFF7D0F90300FB6009E0FFF7CBF9020011
:101D1000FB68D31A274A934201D9032342E0244B9C
:101D20005B680C221A407B685B689B009A42ECD18E
:101D30001E4B1B68012213403A689A4211D21B4B7A
:101D40001B68012293431900184B3A680A431A6032
:101D5000164B1B68012213403A689A4201D00123B6
:101D600020E07B681B680422134009D0104B5B689D
:101D7000114A134019007B68DA680D4B0A435A6018
:101D800000F020F801000A4B5B681B090F2213408A
:101D90000A4AD35C0A00DA40094B1A600020FFF7B8
:101DA0003BF900231800BD4604B080BD002002406E
:101DB0000010024088130000FFF8FFFF24270008EE
:101DC0000800002080B586B000AF0023FB60002330
:101DD000BB6000237B6100237B6000233B61204BC1
:101DE0005B68FB60FB680C221340042B02D0082BBD
:101DF00003D02CE01B4B3B612CE0FB689B0C0F22BB
:101E00001340194AD35C7B60154BDB6A0F221340E9
:101E1000164AD35CBB60FA6880235B02134009D08A
:101E2000B9681048FEF770F903001A007B68534345
:101E30007B6109E079680A005201521A93019B1AEA
:101E4000DB005B181B027B617B693B6102E0054B99
:101E50003B61C0463B691800BD4606B080BDC04628
:101E60000010024000127A003427000844270008BE
:101E700080B582B000AF78607B68002B01D1012370
:101E800042E07B683D229B5CDBB2002B07D17B6884
:101E90003C22002199547B681800FEF7D7FF7B682D
:101EA0003D22022199547B681A687B68043319002B
:101EB000100000F05BFA7B684622012199547B6890
:101EC0003E22012199547B683F22012199547B686D
:101ED0004022012199547B684122012199547B6859
:101EE0004222012199547B684322012199547B6845
:101EF0004422012199547B684522012199547B6831
:101F00003D220121995400231800BD4602B080BD36
:101F100080B584B000AF78607B683D229B5CDBB20B
:101F2000012B01D0012336E07B683D220221995428
:101F30007B681B68DA687B681B6801210A43DA60EA
:101F40007B681B68164A93420AD07B681A68802314
:101F5000DB059A4204D07B681B68124A934211D178
:101F60007B681B689B6807221340FB60FB68062B9D
:101F700010D07B681B681A687B681B6801210A43C4
:101F80001A6007E07B681B681A687B681B68012180
:101F90000A431A6000231800BD4604B080BDC04645
:101FA000002C01400004004080B584B000AF786090
:101FB0007B681B68DB68FB607B681B681B69BB6018
:101FC000BB680222134021D0FB68022213401DD0BF
:101FD0007B681B68032252421A617B6801221A77D0
:101FE0007B681B689B690322134004D07B68180040
:101FF00000F0A4F907E07B68180000F097F97B680F
:10200000180000F0A3F97B6800221A77BB6804224D
:10201000134022D0FB68042213401ED07B681B684B
:10202000052252421A617B6802221A777B681B687C
:102030009A69C0239B00134004D07B68180000F00D
:102040007DF907E07B68180000F070F97B681800E4
:1020500000F07CF97B6800221A77BB6808221340E5
:1020600021D0FB68082213401DD07B681B68092221
:1020700052421A617B6804221A777B681B68DB690D
:102080000322134004D07B68180000F057F907E0E2
:102090007B68180000F04AF97B68180000F056F9D8
:1020A0007B6800221A77BB681022134022D0FB689D
:1020B000102213401ED07B681B68112252421A6105
:1020C0007B6808221A777B681B68DA69C0239B004B
:1020D000134004D07B68180000F030F907E07B68FB
:1020E000180000F023F97B68180000F02FF97B68D6
:1020F00000221A77BB68012213400CD0FB68012232
:10210000134008D07B681B68022252421A617B6828
:102110001800FEF737FFBB68802213400CD0FB6825
:102120008022134008D07B681B68812252421A61CA
:102130007B68180000F098FABB68402213400CD06E
:10214000FB684022134008D07B681B684122524242
:102150001A617B68180000F001F9BB682022134067
:102160000CD0FB682022134008D07B681B6821221A
:1021700052421A617B68180000F06EFAC046BD46F4
:1021800004B080BD80B584B000AF786039600F23A3
:10219000FB1800221A707B683C229B5C012B01D14A
:1021A0000223BCE07B683C22012199547B683D22DC
:1021B000022199547B681B689B68BB60BB687722CF
:1021C0009343BB60BB68584A1340BB607B681B6885
:1021D000BA689A603B681B6880229201934240D0A3
:1021E00080229201934200D988E0802252019342DA
:1021F00000D188E080225201934200D97EE0702B0A
:1022000018D000D97AE0602B4FD000D976E0502B5F
:102210003BD000D972E0402B57D000D96EE0302B74
:1022200063D06BD8202B60D068D8002B5DD0102BEA
:102230005BD063E07B6818683B6899683B685A68C4
:102240003B68DB6800F090F97B681B689B68BB60AB
:10225000BB6877221343BB607B681B68BA689A60CF
:1022600052E07B6818683B6899683B685A683B682D
:10227000DB6800F079F97B681B689A687B681B68EB
:102280008021C9010A439A603EE07B6818683B6878
:1022900059683B68DB681A0000F0ECF87B681B6843
:1022A0005021180000F046F92EE07B6818683B6862
:1022B00059683B68DB681A0000F00AF97B681B6804
:1022C0006021180000F036F91EE07B6818683B6852
:1022D00059683B68DB681A0000F0CCF87B681B6823
:1022E0004021180000F026F90EE07B681A683B6870
:1022F0001B681900100000F01DF905E00F23FB1802
:1023000001221A7000E0C0467B683D2201219954E9
:102310007B683C22002199540F23FB181B7818007E
:10232000BD4604B080BDC046FF00FFFF80B582B04F
:1023300000AF7860C046BD4602B080BD80B582B0B7
:1023400000AF7860C046BD4602B080BD80B582B0A7
:1023500000AF7860C046BD4602B080BD80B582B097
:1023600000AF7860C046BD4602B080BD80B584B085
:1023700000AF786039607B681B68FB607B68374A18
:10238000934208D07A688023DB059A4203D07B68A9
:10239000334A934208D1FB6870229343FB603B6849
:1023A0005B68FA681343FB607B682C4A934214D045
:1023B0007A688023DB059A420FD07B68284A9342D3
:1023C0000BD07B68274A934207D07B68264A93420A
:1023D00003D07B68254A934208D1FB68244A134006
:1023E000FB603B68DB68FA681343FB60FB68802294
:1023F00093431A003B685B691343FB607B68FA6890
:102400001A603B689A687B68DA623B681A687B6886
:102410009A627B68114A934207D07B68124A9342C2
:1024200003D07B68114A934203D13B681A697B68E9
:102430001A637B6801225A617B681B690122134081
:10244000012B06D17B681B69012293431A007B682C
:102450001A61C046BD4604B080BDC046002C014094
:1024600000040040002000400044014000480140BA
:10247000FFFCFFFF80B586B000AFF860B9607A60FE
:10248000FB681B6A7B61FB681B6A012293431A008D
:10249000FB681A62FB689B693B613B69F0229343CE
:1024A0003B617B681B013A6913433B617B690A22EC
:1024B00093437B617A69BB6813437B61FB683A692C
:1024C0009A61FB687A691A62C046BD4606B080BD53
:1024D00080B586B000AFF860B9607A60FB681B6AAF
:1024E0007B61FB681B6A102293431A00FB681A6227
:1024F000FB689B693B613B690D4A13403B617B680C
:102500001B033A6913433B617B69A02293437B61C0
:10251000BB681B017A6913437B61FB683A699A6166
:10252000FB687A691A62C046BD4606B080BDC046E7
:10253000FF0FFFFF80B584B000AF786039607B6823
:102540009B68FB60FB6870229343FB603A68FB6802
:10255000134307221343FB607B68FA689A60C04606
:10256000BD4604B080BD000080B586B000AFF86005
:10257000B9607A603B60FB689B687B617B69094A54
:1025800013407B613B681A027B681A43BB681343A4
:102590007A6913437B61FB687A699A60C046BD46DD
:1025A00006B080BDFF00FFFF80B584B000AF78604B
:1025B00039607B683C229B5C012B01D1022342E005
:1025C0007B683C22012199547B683D220221995469
:1025D0007B681B685B68FB607B681B689B68BB60F3
:1025E000FB6870229343FB603B681B68FA681343E7
:1025F000FB607B681B68FA685A607B681B68144A3A
:1026000093420AD07B681A688023DB059A4204D083
:102610007B681B680F4A93420CD1BB6880229343AE
:10262000BB603B685B68BA681343BB607B681B6830
:10263000BA689A607B683D22012199547B683C22EC
:102640000021995400231800BD4604B080BDC04647
:10265000002C01400004004080B582B000AF7860DB
:10266000C046BD4602B080BD80B582B000AF786084
:10267000C046BD4602B080BD70B500260C4D0D4C65
:10268000641BA410A64209D1002600F021F80A4DCF
:102690000A4C641BA410A64205D170BDB300EB58D0
:1026A00098470136EEE7B300EB5898470136F2E75A
:1026B000542700085427000854270008582700080A
:1026C00003008218934200D1704719700133F9E773
:1026D000F8B5C046F8BC08BC9E467047F8B5C04681
:0826E000F8BC08BC9E467047DF
:1026E800C00400086E050008F60500085E0600082C
:1026F800E6060008F0080008220900085409000846
:1027080086090008B8090008EA0900081C0A000838
:102718004E0A0008800A0008B20A000800000000FB
:10272800000000000102030406070809020304056B
:10273800060708090A0B0C0D0E0F101001020304FE
:0C27480005060708090A0B0C0D0E0F1007
:04275400E900000890
:04275800C1000008B4
:10275C00102700008813000000127A00000000000F
:10276C000000000000000000010000000400000058
:04277C000100000058
:0400000508000F9D43
:00000001FF
